:020000040800F2
:1000000000900020513600083D1500083F150008FB
:1000100000000000000000000000000000000000E0
:10002000000000000000000000000000D92C0008C3
:100030000000000000000000412D0008852D000890
:10004000A136000800000000A1360008A136000813
:10005000A1360008A1360008A1360008A136000824
:1000600000000000A1360008A1360008A1360008F3
:10007000A1360008A1360008A136000800000000E3
:10008000A136000841150008A1360008A136000875
:10009000A1360008A1360008A1360008A1360008E4
:1000A000A1360008A1360008A1360008A1360008D4
:0800B000A1360008A13600088A
:1000C0000CB410B500249CB00291069109491EABF6
:1000D00004910791084904CB059102A901931B944F
:1000E00000F014FB029B1C701CB010BC08BC02B0DA
:1000F0001847C046FFFFFF7F0802FFFF0EB410B590
:1001000000240C499DB0049107910B491FAB059148
:100110000A4904CB02900690086802A901931B9437
:1001200000F0F4FA029B1C701DB010BC08BC03B0B8
:100130001847C046FFFFFF7F0802FFFF00000020B6
:10014000F0B50500830749D0541E002A45D00300AE
:100150000326CAB202E00135013C3ED301332A70C6
:100160003342F8D1032C30D9FF220A401502AD18D2
:100170002A04AD180F2C34D92700103F3F093E0147
:10018000B4461E001A00103666441560556095602E
:10019000D56010329642F8D101373F01DB190F27A5
:1001A0000C22274022403C00002A0ED03E1FB608F9
:1001B000B400A4461A001C1D644420C2A242FCD113
:1001C00003240136B6009B193C40002C05D0C9B26F
:1001D0001C19197001339C42FBD1F0BD03001400BF
:1001E000C0E72700E2E7C046014B18687047C046E9
:1001F0000000002070B50D4B0D4D5E1BB610AB42DC
:1002000005D0002408CD01349847A642FAD803F05F
:1002100049FA084B084D5E1BB610AB4205D00024CE
:1002200008CD01349847A642FAD870BDC8380008F6
:10023000C8380008CC380008C83800087047C046E5
:100240007047C0467047C0467047C0467047C046BA
:100250007047C04601207047012070477047C04674
:100260007047C046F0B505000F2A33D903240300B8
:1002700026000B431E401C4237D11500103D2D09AE
:1002800003000C00AC462F013F1865685D60A5684F
:100290009D60E568DD60256810341D601D00103329
:1002A000BD42F2D165460F230C2401352D014919B9
:1002B0001340451914421AD08C59AC5104369C1B7A
:1002C000032CF9D8043B9B0801339B00ED18C91897
:1002D00003231A40561E002A06D00023CC5C1A00C5
:1002E000EC5401339642F9D1F0BD561EF5E71A00E1
:1002F000F0E7C04670B50500002915D00C1F236833
:10030000002B23DB280000F0FDF8274A1368002BA0
:1003100005D0A3420BD92168601883422CD0280055
:100320006360146000F0F6F870BDA34210D81A00A4
:100330005B68002BF9D1106811188C4218D02CD3AF
:1003400063605460280000F0E5F8EDE7E418D9E7B1
:1003500011685018A04214D01FD821686018834239
:10036000EED118685B684118216063605460E9E76A
:1003700023681B181360E5E718685B684118216063
:10038000CDE720680918501811608342DAD1186847
:100390005B68411811605360D4E70C2328002B6080
:1003A00000F0B8F8C0E7C046C401002070B5104E98
:1003B000050033680C00002B15D02100280000F048
:1003C000FBFC431C0CD00323C41C9C43A04205D05F
:1003D000211A280000F0F0FC013001D0200070BD8F
:1003E00001246442FAE7002100F0E6FC3060E4E713
:1003F000C0010020F8B50323CE464746CD1C9D43DF
:100400000835060080B50C2D1ED20C25A9421DD83A
:10041000300000F077F83A4F7A68002A1AD01400BA
:1004200004E063682200002B14D01C0023685B1BCF
:10043000F7D40B2B27D961192560A2425BD05160FC
:100440000B6063684B600DE0002DDFDA0C230020A9
:10045000336014E029003000FFF7A8FF0400431CBC
:1004600019D00560300000F055F8200007220B304D
:10047000231D9043C21A984201D01B1AA350C0BC3E
:10048000B946B046F8BD6368A24202D05360E9E7BE
:1004900043467B60E6E77B689846002B24D04446C1
:1004A00063689846002BFAD12368002199463000F2
:1004B000A14400F081FC814516D123683000ED1A7B
:1004C0002900FFF773FF01300ED023687A685B19AB
:1004D00023605368002B02D1DAE71A005B68A3425D
:1004E000FBD100235360BDE70C233000336000F0E4
:1004F00011F80020C3E779600B6063684B60B1E7D7
:10050000C001002010B50248FFF7A2FE10BDC04692
:10051000B001002010B50248FFF7A2FE10BDC04692
:10052000B0010020F0B546464F46D646C0B58E68AD
:1005300080460C0091461D0008689E4239D80C2266
:100540008B5E9022D200134210D135002A0049461A
:1005500000F0DAFB0020A3689B1BA36023685B19F3
:100560002360E0BCBA46B146A846F0BD0969421A0C
:100570009246606942001218D70FBF18681C7F109E
:1005800050443A00B84201D9070002005B0512D579
:1005900011004046FFF72EFF061E1FD0524621696C
:1005A000FFF760FEA389124A134080221343A38100
:1005B00006E01E00CAE7404600F04AFC061E09D0CD
:1005C0003000534650446761FF1A266120602E00B8
:1005D000A760BBE740462169FFF78CFE0C2342462B
:1005E000136040220120A38940421343A381B8E74E
:1005F0007FFBFFFFF0B545465746DE464E46E0B569
:10060000136883B0984693680D0092460190002BC2
:100610006FD0002300249B460A688B6849E00C21B8
:100620006B5E9021C9000B422BD068692969561A6C
:1006300042001218D00F8218701C521000199146F7
:10064000904201D9814602008020C00003423AD086
:1006500011000198FFF7CEFE071E3DD03200296938
:10066000FFF700FEAB89284A134080221343AB8179
:100670004B46B8199E1B2F61AE60270026002860EC
:100680006B613200594600F03FFB51465046AB6863
:100690002A688968DB1B9219091BAB602A6081609C
:1006A00027D0414609688B4641464C6808218C4654
:1006B000E0441F001000002CF3D01E009C42AED27C
:1006C00027002600DDE7019800F0C2FB071ECFD10E
:1006D00029690198FFF70EFE0C23019A012013608F
:1006E0004022AB8940421343AB81524600239360C2
:1006F00000E0002000235246536003B0F0BCBB462C
:10070000B246A946A046F0BD7FFBFFFFF0B5DE462E
:1007100057464E464546E0B51C008B8982468946C1
:1007200093469DB01B0603D50B69002B00D1F5E065
:10073000002304AD6B6120336B761033AB765B46E0
:100740001B787F4F0394002B78D05C4604E06378DD
:100750000134002B00D17EE0252BF8D15B46E61A50
:100760005C4500D07BE02378002B67D0012300227A
:100770005B42049205930022002306920793002314
:100780004332AB54AB6501339B46013406E05A4615
:10079000C01B82401C0029680A432A6005223800D9
:1007A000217800F01BFB631C1E000028EFD12A6893
:1007B000D10602D5432120306854110702D54321C8
:1007C0002B20685421782A2955D1039B191D1B68B9
:1007D0000391002B00DA7CE0EB6061782E2960D079
:1007E000584C0322200000F0F9FA002806D04023DC
:1007F000001B83402A68013613432B603178731C39
:10080000062251489B46297600F0E8FA002866D077
:100810004E4B002B56D003AA009229004A46504660
:100820004B4B00E000BF80464346013306D06B6966
:1008300043446B615B461B78002B86D14B469B89FA
:100840005B0600D579E068691DB0F0BCBB46B246D6
:10085000A946A046F0BD5B46E61A5C45EED03300E3
:100860005A4649465046FFF75DFE0130E6D06B69B7
:100870009B196B6177E70800303826000928ADD84E
:10088000EA68140000E00133A2001219197852003E
:100890001418080030380928F5D91E00EC602E29FC
:1008A0009ED171782A2924D1039BB01C1A1D1B6884
:1008B00003926B60002B02DA01235B426B60B1781C
:1008C00006008DE70722039B073393430833039306
:1008D000ADE75B42EB6002231A432A607DE703AA7F
:1008E000009229004A465046194B00F0D7F880463E
:1008F0009AE708000023303801366B60092800D9D8
:100900006EE71A0093009B1871785B001A180800B4
:10091000303801360928F5D96A6061E74021FFF7D0
:1009200069FD4B4618601861002803D040234A46F1
:100930005361FDE60C23524613600120404283E7D9
:10094000043800080C3800081038000800000000C7
:1009500025050008F8B557464E464546DE46E0B543
:100960001F000A9B924698460A698B6806000C0095
:100970009A4200DA1A0053461A604323E35C002BC4
:1009800002D0514601320A602268910661D5534671
:10099000524606201B680233136022681100104281
:1009A00008D1192083460020E1688146A34499427A
:1009B00047DC11004323E35C5A1E934189060AD5A4
:1009C0003020E1184331087045215A1C615CA2189F
:1009D0004332023311702200390030004332C047E5
:1009E00001301DD0534606251B68E1689C462368EC
:1009F000A26820692B40042B31D0824239DD0023CC
:100A00009946121A914400251A3402E001354D45E9
:100A10002FDA0123220039003000C0470130F5D120
:100A200001204042F0BCBB46B246A946A046F8BDF4
:100A300001239C465346E5681B68E144ED1A4D4589
:100A400024DD01235A4639003000C0470130EFD180
:100A5000E6E7062111420ED05A1E9341BBE76346DA
:100A6000C91ACB43DB170B4099468242C9DC0029E7
:100A7000C9DC0020D6E719205346834600201B68B6
:100A8000E1688146A3449942DBDC92E74323216875
:100A9000E35C5A1E9341890692D49CE7F0B54E461A
:100AA000994643239C4657464546DE468C4463465A
:100AB000E0B587B002930C00097E90460700109ABB
:100AC000002914D00B00583BDBB2202B48D88B48B0
:100AD0009B00C3589F46136821681D1D60691560FF
:100AE0001B680E0602D4490600D5E3E01860002317
:100AF000029D23614B46210000933800434605AA1E
:100B0000FFF728FF01301ED02A0041463800236934
:100B1000C847013017D02368E068059E9B071BD5A6
:100B2000B04219DD19239A460025A24404E0E0688A
:100B30000135831BAB420FDD01235246414638008D
:100B4000C8470130F3D10120404207B0F0BCBB469A
:100B5000B246A946A046F0BDB042F6DA3000F4E74E
:100B60002500422301204235E15443230022206125
:100B7000E254BFE713682168181D10600D0602D407
:100B80004D0600D59AE01A6816006368002A00DA5C
:100B900098E05B4A93460A2203924CE0136820686F
:100BA0001D1D1560060602D4400600D584E01E68AF
:100BB000534B9B466F2900D195E00A23039336E0FF
:100BC00013682500191D11601A684223012042355F
:100BD000E254CAE71368191D11601D68002128003E
:100BE000626800F0FBF8002800D185E0401B6060DF
:100BF000BBE7202321680B43236045217820605404
:100C000040498B461168081D10601D0631D45D06F1
:100C10002FD50E88DA0702D5202213432360002E39
:100C200003D120222368934323601023039343239B
:100C30000022E2546368A360002B1EDB04212268BB
:100C40008A432260002E18D1029D002B4ED1039BB7
:100C5000082B24D0029B5B1B23614BE745235821C3
:100C6000E154274923688B461168081D10601D0652
:100C7000CDD50E68CEE72368BFE7039B9A46029D59
:100C80003000514600F066F95B465B5C013D2B701D
:100C9000330006005345F3D2039B082BDAD12368B7
:100CA000DB07D7D5626823699A42D3DC3023013D44
:100CB0002B70CFE718801AE71E8879E700269E5F21
:100CC000320062E743222D20A054A360002B02DBF8
:100CD0000423994321600A239A46094B76429B4696
:100CE0000A230393CBE708230393A0E75B46250081
:100CF0001B7842352B70AAE7606836E7F8360008A3
:100D0000183800082C380008F0B588420AD98B182A
:100D1000984207D2531E002A03D0CA5CC254013B3A
:100D2000FBD2F0BD05000F2A0AD8561E002AF8D0C3
:100D30000023CC5C1A00EC5401339642F9D1F0E761
:100D40000324030026000B431E401C4230D1150033
:100D5000103D2D0903000C00AC462F013F182568FB
:100D60001D6065685D60A5689D60E5681034DD60A4
:100D70001D001033BD42F2D165460F230C2401350E
:100D80002D01491913404519144213D08C59AC5107
:100D900004369C1B032CF9D8043B9B0801339B00B1
:100DA000ED18C91803231A40561E002AC0D1B8E70F
:100DB000561EBDE71A00B8E7002370B5064C0500C3
:100DC0000800236000F0C4FB431C00D070BD236802
:100DD000002BFBD02B60F9E79C01002070B5CCB252
:100DE00083070FD0531E002A0AD0032504E00130E8
:100DF000284208D0013B03D30278A242F7D170BD4C
:100E00000020FCE71300032B12D9FF220A40150231
:100E1000AD182A040C4EAD1803E0043B0430032B3C
:100E200006D9026809496A40511891433142F4D009
:100E3000C218002B03D1E3E701309042E0D00378E1
:100E4000A342F9D1DBE7C04680808080FFFEFEFE32
:100E5000F0B5C64607000E00140000B500292DD0DD
:100E6000002A1DD000F030F88046844203D83500B7
:100E70004308A34210D321003800FFF7BBFA051E38
:100E800010D0220044450FD831002800FFF7EAF9BE
:100E900031003800FFF72EFA280080BCB846F0BDBC
:100EA000FFF728FA0025F7E7310042462800FFF750
:100EB000D9F931003800FFF71DFAEDE71100FFF70F
:100EC00099FA0500E8E7C0460B1F1B68181F002BA6
:100ED00000DB70470B58C018FBE7C046002934D030
:100EE0000123002210B488422CD301242407A142FC
:100EF00004D2814202D209011B01F8E7E400A142B9
:100F000004D2814202D249005B00F8E7884201D353
:100F1000401A1A434C08A04202D3001B5C0822432B
:100F20008C08A04202D3001B9C082243CC08A0429C
:100F300002D3001BDC082243002803D01B0901D088
:100F40000909E3E7100010BC704701B5002000F06C
:100F50005FF802BD0029F8D003B5FFF7C1FF0EBC52
:100F60004243891A1847C046002941D010B40400F2
:100F70004C40A44601230022002900D54942002804
:100F800000D5404288422CD301242407A14204D238
:100F9000814202D209011B01F8E7E400A14204D218
:100FA000814202D249005B00F8E7884201D3401A2F
:100FB0001A434C08A04202D3001B5C0822438C0851
:100FC000A04202D3001B9C082243CC08A04202D3BB
:100FD000001BDC082243002803D01B0901D00909AB
:100FE000E3E710006446002C00D5404210BC704777
:100FF00001B5002000F00CF802BDC0460029F7D072
:1010000003B5FFF7B3FF0EBC4243891A1847C04629
:101010007047C04610B5064C2378002B07D1054B0E
:10102000002B02D0044800E000BF0123237010BD54
:10103000C801002000000000A4360008044B10B5D1
:10104000002B03D00349044800E000BF10BDC04698
:1010500000000000CC010020A4360008F0B5CE4608
:10106000474680B58BB01422002105A8FFF768F829
:10107000294B596B042211435963596B0A40019261
:10108000019A5A6B202422435A635A6B22400292DF
:10109000029A5A6B01252A435A635A6B2A400392DB
:1010A000039A5A6B02273A435A635B6B3B400493A3
:1010B000049B9021A026F60500224900300000F094
:1010C000ABFB8223DB019946144B9846002249462C
:1010D000180000F0A1FB05940695002407940897DA
:1010E00005A9300000F0DEFA4B46059306950794FB
:1010F000089405A9404600F0D5FA80235B000593CB
:1011000006950794089405A9300000F0CBFA0BB0BF
:10111000C0BCB946B046F0BD00100240000400500B
:1011200010B588B00400002300931A22002101A802
:10113000FFF706F8064922006846FEF7DFFF0123A5
:1011400004485B421E22694601F05FFB08B010BDF7
:101150007C370008F001002010B588B0040000239F
:1011600000931A22002101A8FEF7EAFF0649220097
:101170006846FEF7C3FF012304485B421E2269460E
:1011800001F043FB08B010BD94370008F0010020C7
:1011900010B588B00400002300931A22002101A892
:1011A000FEF7CEFF064922006846FEF7A7FF01239F
:1011B00004485B421E22694601F027FB08B010BDBF
:1011C000AC370008F001002010B50A4C2000FFF7F2
:1011D000A7FFFA2000F008FA2000FFF7BDFFFA2071
:1011E00000F002FA2000FFF7D3FFFA20800001F0A0
:1011F000E8FCEAE7C037000870B50B4C2000FFF7A9
:101200008FFFFA256D00280000F0EEF92000FFF7AF
:10121000A3FF280000F0E8F92000FFF7B9FFFA204B
:10122000800001F0CEFCE8E7C837000870B50B4D30
:101230002800FFF775FFFA24A400200000F0D4F97D
:101240002800FFF789FF200000F0CEF92800FFF703
:101250009FFF200001F0B5FCE9E7C046D037000849
:1012600010B50268034B9A4200D010BD00F0AAF9F5
:10127000FBE7C0460010004072B6FEE710B5174805
:10128000174B0360E1235B02436000238360C3606C
:1012900003610C2242618361C36103624362836222
:1012A00001F09CFB002811D10C48002101F016FC34
:1012B00000280DD10948002101F036FC002809D191
:1012C000064801F0EBFB002806D110BDFFF7D4FF64
:1012D000FFF7D2FFFFF7D0FFFFF7CEFFF0010020AE
:1012E0000044004000B593B03422002105A8FEF769
:1012F00027FF1022002101A8FEF722FF8020800096
:1013000000F090FA022305938022520008920022F6
:10131000099240210A910C930D930E9206330F937C
:1013200080239B02109380239B05119305A800F056
:10133000A3FA00280ED107230193053B0293002353
:1013400003930493022101A800F044FD002803D177
:1013500013B000BDFFF790FFFFF78EFF70B590B0A0
:1013600000F01CF9FFF7BEFFFFF778FEFFF786FFDE
:101370000BA8144C0300220062CA62C322CA22C313
:10138000002101F004FC104B186006A82300143360
:10139000020062CB62C222CB22C2002101F0F7FB25
:1013A0000A4B186001A823002833020032CB32C256
:1013B00012CB12C2002101F0EAFB054B186001F0CC
:1013C000E1FBFEE7BC360008EC010020E80100204C
:1013D000E401002000B583B00E4B196C01221143CB
:1013E0001964196C0A400092009ADA6B8021490551
:1013F0000A43DA63DB6B0B400193019B022000225E
:101400000321404200F03EF9C020C00000F0FEF889
:1014100003B000BD0010024010B58EB004001422CD
:10142000002109A8FEF78CFE1C22002102A8FEF76D
:1014300087FE2268174B9A4201D00EB010BD0223DE
:10144000029302A800F0C0FD00281FD1124BDA6BF6
:10145000802189020A43DA63DA6B0A400092009A1B
:10146000596B0122114359635B6B13400193019B3C
:101470000C2309930A3B0A930B9200230C930D92C1
:10148000A02009A9C00500F00DF9D6E7FFF7F4FE8A
:10149000DCE7C046004400400010024030B587B091
:1014A0000500204AD16B10231943D163D26B13403E
:1014B0000093009B01A902A800F06CFD059B002B86
:1014C00017D100F053FD1849FFF708FD421E174BD6
:1014D000174918001960174BC3604260002303616D
:1014E0008360836100F076FF041E06D0200007B001
:1014F00030BD00F03BFD4000E5E70C4800F02EFE5B
:10150000041EF3D1112000F0C1F8032D01D90124EC
:10151000ECE700222900112000F0B4F8064B1D6012
:10152000E4E7C0460010024040420F008402002061
:1015300000100040E703000058000020FEE7FEE72F
:1015400010B5024800F046FE10BDC04684020020DF
:1015500010B503000C4A0D49521A0D4909680029BB
:1015600007D00B490868C318934206D8084A13608D
:1015700010BD074907480860F3E7FEF735FE0C2366
:10158000036001204042F3E70090002000040000C7
:10159000D0020020281000207047000010B5084A33
:1015A000116880235B000B4313600320FFF776FF75
:1015B000041E02D00124200010BDFFF70BFFFAE744
:1015C00000200240034B1B78034A11685B1813602C
:1015D0007047C04654000020D4020020014B186818
:1015E0007047C046D402002070B50400FFF7F6FF34
:1015F0000500631C02D0044B1B78E418FFF7EEFFD4
:10160000401BA042FAD370BD54000020034A136867
:1016100003490B40034313607047C046000001407C
:10162000FFF9FFFF70B5002811DB8308134DC033AD
:101630009B005C5903221040C000FC32160086401B
:10164000B44389010A40824022435A5170BD0F239E
:101650000340083B9B0806339B00094A94466344B9
:101660005C6803221040C000FC3215008540AC438A
:1016700089010A40824022435A60E7E700E100E026
:1016800000ED00E010B5FFF7CDFF10BD002805DB31
:101690001F22024001239340014A13607047C04655
:1016A00000E100E0F0B5002359E086685F00032404
:1016B000BC40A643CC68BC40344384604468944337
:1016C0004E683609012232409A402243426056E079
:1016D000DE080836B600375805321A4092000F244B
:1016E0009440A7430C69944022003A43325059E099
:1016F000032600E00026A64034003C43424E183248
:10170000920094513768EA433E00AE434C68E402CD
:1017100001D53E002E433C4C266067683E001640D3
:101720004C68A40201D53E002E43374C66608426E7
:10173000A7593E0016404C68A40301D53E002E4335
:10174000314C8427E6518026A65932404C68E40388
:1017500001D52A0032432C4D80242A5101330C68D4
:101760002200DA404ED001229A4025001540144252
:10177000F4D04E6803243440013C012C95D94C68C8
:1017800003222240032A08D0C4685E000322B2402C
:1017900094438A68B2402243C2604C6803222240CC
:1017A000022A95D004685E0003221700B740BC43AC
:1017B0004F683A40B240224302604C68C022920215
:1017C0001442CBD09A0814001834A4000E4EA75926
:1017D00003241C40E4000F26A640B743A026F605CC
:1017E000B04287D0094EB04208D0094EB04207D06F
:1017F000084EB04200D17BE705267CE701267AE758
:10180000022678E7F0BDC0460018024000040050F0
:1018100000080050000C0050002A01D08161704780
:101820008162FCE710B5104A136810490B4003436E
:10183000136080239B00984201D0002010BD0C4B08
:101840001B685800C01840000A49FFF747FB0130E9
:10185000054B5B695B0503D5002803D00138F7E72A
:101860000020EBE70320E9E700700040FFF9FFFFED
:101870005000002040420F0070B582B0041E00D11D
:1018800029E20368DB0739D5C14A916838230B4048
:10189000D16803220A40102B26D0082B26D063687B
:1018A0008022520293427FD0A022D202934200D1E2
:1018B00081E0B74B1A68B7490A401A601A68B649FE
:1018C0000A401A606368002B00D180E0FFF786FEB3
:1018D0000500AF4B1B689B0310D4FFF77FFE401B36
:1018E0006428F6D90320F7E1032AD6D1A84B1B6858
:1018F0009B0303D56368002B00D1EFE123689B07AE
:1019000031D5A34A916838230B40D16803220A409D
:10191000102B6AD0002B6BD19D4A1268520503D55B
:10192000E268002A00D1DBE1994842689B490A40FD
:10193000616909020A434260002B0DD1036898498E
:101940000B4021690B4303600368DB0A07221A403E
:10195000944BD340944A1360944B1868FFF79EFD54
:10196000002800D0BEE123681B0700D481E0884B2B
:101970009A6838231340182B73D0A369002B00D129
:10198000B4E0834A136E01210B431366FFF726FE72
:1019900005007F4B1B6E9B076BD4FFF71FFE401BA0
:1019A0000228F6D9032097E1794A116880235B0267
:1019B0000B43136086E7764B19688022D2020A43F4
:1019C0001A601968802252020A431A607AE7FFF708
:1019D00005FE05006E4B1B689B038FD5FFF7FEFDD0
:1019E000401B6428F6D9032076E1022A92D193E7BE
:1019F000E368002B22D0664A136869490B402169CD
:101A00000B431360116880235B000B431360FFF7E7
:101A1000E5FD05005E4B1B685B0506D4FFF7DEFDA8
:101A2000401B0228F6D9032056E159494B685B4A0E
:101A300013406269120213434B6094E7544A1368DF
:101A40005B490B401360FFF7C9FD0500504B1B6855
:101A50005B0588D5FFF7C2FD401B0228F6D903209D
:101A60003AE14B4B1B6E9B0703D5A369002B00D1BA
:101A70003AE123685B0700D4A2E0454B9A6838231B
:101A80001340202B45D0424BDB6BDB004AD4404B4C
:101A9000DA6B802149050A43DA63DB6B0B40019363
:101AA000019B0125434B1B68DB053DD5A368012B3A
:101AB0004ED0052B52D0364BDA6D01218A43DA65C0
:101AC000DA6D03318A43DA65A368002B50D0FFF743
:101AD00085FD06002E4BDB6D9B076FD4FFF77EFD67
:101AE000801B354B9842F5D90320F5E0284A136E48
:101AF00001218B431366FFF771FD0500244B1B6E1C
:101B00009B07B6D5FFF76AFD401B0228F6D90320D4
:101B1000E2E01F4BDB6D9B0752D5A368002B4FD132
:101B20000120D9E00025BDE7224A116880235B002F
:101B30000B431360FFF752FD06001E4B1B68DB05CD
:101B4000B4D4FFF74BFD801B0228F6D90320C3E075
:101B50000F4AD36D01210B43D365B5E70C4BDA6D0A
:101B600004210A43DA65DA6D03390A43DA65ABE723
:101B7000FFF734FD0600064BDB6D9B071ED5FFF714
:101B80002DFD801B0C4B9842F5D90320A4E0C046E4
:101B900000100240FFFFFEFFFFFFFBFFFF80FFFF83
:101BA000FFC7FFFF0024F400500000205800002071
:101BB000FFFEFFFF0070004088130000012D1ED0C3
:101BC000E369002B00D191E04F4A916838220A4026
:101BD000102A5ED0022B18D04B4A13684B490B4099
:101BE0001360FFF7FBFC0400474B1B689B0149D5C2
:101BF000FFF7F4FC001B0228F6D903206CE0424AF0
:101C0000D36B43490B40D363DAE73F4A13683F493C
:101C10000B401360FFF7E2FC05003B4B1B689B0188
:101C200006D5FFF7DBFC401B0228F6D9032053E062
:101C3000354AD36837491940236A606A0343A06A6A
:101C400000020343E06A0343206B03430B43D3606A
:101C5000116880235B040B431360D16880235B050C
:101C60000B43D360FFF7BAFC0400274B1B689B01B2
:101C700006D4FFF7B3FC001B0228F6D903202BE0A3
:101C8000002029E0204AD36823490B40D36000207C
:101C900022E0012B2CD01C4BDA6803231340216A6D
:101CA0008B4227D170231340616A8B4224D1FE21DD
:101CB000C9011140A36A1B0299421FD1F8239B035B
:101CC0001340E16A8B421BD1520F5207236B9A4299
:101CD00018D1002000E0012002B070BD0120FBE718
:101CE0000120F9E70120F7E70120F5E70020F3E7FD
:101CF0000120F1E70120EFE70120EDE70120EBE70C
:101D00000120E9E70120E7E700100240FFFFFFFEA6
:101D1000FFFFFFEF8C80C11FFCFFFEEF10B52A4BC9
:101D20009B6838221A4207D1274B1A68D20A072328
:101D300013402648D84010BD234B9A6838231340DF
:101D4000082B3BD0204B9A6838231340102B0DD022
:101D50001D4B9A6838231340202B31D01A4B9A68B8
:101D600038231340182B26D00020E4E7164AD16808
:101D70000D3B0B40D2681209072111400131032BA2
:101D80000FD01248FFF7AAF80F4BDA68120A7F2328
:101D9000134058430C4BD968490F0131FFF79EF8A7
:101DA000C9E70B48FFF79AF8074BDA68120A7F2356
:101DB00013405843EEE7FA20C001BCE70448BAE7F5
:101DC00080200002B7E7C046001002400024F40063
:101DD00000127A0070B504000D00002800D1AAE0BE
:101DE000574B1A68072313408B4221D323689A0765
:101DF0000ED55B0705D5534A9168E023DB010B4301
:101E00009360504A936850490B40A1680B4393601C
:101E10002368DB0754D56368012B20D0022B3BD00D
:101E2000002B3FD1474A126852051CD401206AE0BA
:101E3000434A136807218B432B431360FFF7CEFB04
:101E400006003F4B1A6807231340AB42CED0FFF782
:101E5000C5FB801B3D4A9042F3D9032053E0394A29
:101E60001268920369D537498A6807208243134371
:101E70008B60FFF7B3FB0600324B9B6838221A4099
:101E80006368DB009A421BD0FFF7A8FB801B2F4B37
:101E90009842F1D9032036E02A4A12689201E2D42E
:101EA000012030E0032B05D0264AD26D9207DAD408
:101EB000012028E0234A126E9207D4D4012022E0A8
:101EC0001F4B1A6807231340AB421DD823685B07DA
:101ED00006D51C4A93681E490B40E1680B4393608A
:101EE000FFF71CFF174B9A68120A0F231340194A79
:101EF0009B009A581F231340D840174B1860174B6C
:101F00001868FFF7CBFA70BD0D4A136807218B43A1
:101F10002B431360FFF762FB0600094B1A68072387
:101F20001340AB42D2D0FFF759FB801B074B9842BE
:101F3000F3D90320E7E70120E5E70120E3E7C04606
:101F40000020024000100240FFF0FFFF8813000055
:101F5000FF8FFFFF6038000850000020580000206D
:101F6000014B18687047C0465000002010B5FFF7BD
:101F7000F7FF064B9A68120B07231340044A9B0095
:101F80009A581F231340D84010BDC046001002408D
:101F90004038000830B507230360094A94681C40A4
:101FA00044609468F0252D012C4084609268E02400
:101FB000E4012240C260034A126813400B6030BD46
:101FC0000010024000200240F0B583B00400036816
:101FD0009B0362D5584BDB6BDB001ED4564BDA6B90
:101FE000802149050A43DA63DB6B0B400193019BB7
:101FF0000126524A116880235B000B431360FFF7F0
:10200000EDFA05004D4B1B68DB0508D4FFF7E6FA37
:10201000401B0228F6D9032502E00026E9E7002547
:10202000002D23D1444BD96DC02292000B001340E8
:10203000114210D0A2699A420DD03F4AD36D404957
:102040000B40D06D802149020143D165D16D3D48DF
:102050000140D165D365DB0710D4002D06D1364A87
:10206000D36D37490B40A1690B43D365012E15D1C0
:10207000314AD36B34490B40D3630FE0FFF7AEFA1C
:1020800007002D4BDB6D9B07E7D4FFF7A7FAC01BBA
:102090002E4B9842F5D90325DFE700252368DB079F
:1020A00006D5254A536D03218B4361680B43536565
:1020B00023689B0706D5204A536D0C218B43A168EA
:1020C0000B43536523689B0606D51B4A536D204975
:1020D0000B40E1680B43536523685B040BD5164A3C
:1020E000536D9B009B0861690B43536562698023B4
:1020F000DB059A4211D023681B050BD50E4A536DA0
:1021000014490B4021690B43536522698023DB018D
:102110009A4209D0280003B0F0BD074AD168802355
:102120005B020B43D360E6E7034AD16880235B027E
:102130000B43D360EEE7C046001002400070004041
:10214000FFFCFFFFFFFFFEFFFFFFFFEF8813000014
:10215000FFCFFFFFFF3FFFFF704700003D23C35C41
:10216000012B25D13C330222C2540268D3680121DD
:102170000B43D3600368114A93420BD0104A934239
:1021800008D0104A934205D01A6801210A431A6008
:1021900000200EE09A680C490A40062A0AD0073946
:1021A0008A4209D01A6801210A431A60002000E01F
:1021B000012070470020FCE70020FAE7002C0140D6
:1021C00000040040004001400700010070477047D4
:1021D0007047704770B505000368DE681C69A20788
:1021E0000ED5B2070CD5032252421A6101230377A0
:1021F00003689B699B0757D0FFF7E9FF00232B7704
:10220000630712D5730710D52B68052252421A6155
:1022100002232B772B689A69C0239B001A4249D06E
:102220002800FFF7D4FF00232B77230710D53307AF
:102230000ED52B68092252421A6104232B772B6892
:10224000DB699B073DD02800FFF7C1FF00232B77F8
:10225000E30612D5F30610D52B68112252421A61FB
:1022600008232B772B68DA69C0239B001A422FD0F2
:102270002800FFF7ACFF00232B77E30701D5F30716
:102280002DD482239B011C4201D033062FD4E305B9
:1022900001D5330632D4630601D5730635D4A406BE
:1022A00001D5B60639D470BDFFF790FF2800FFF7BF
:1022B0008FFFA3E72800FFF789FF2800FFF788FFBB
:1022C000B1E72800FFF782FF2800FFF781FFBDE795
:1022D0002800FFF77BFF2800FFF77AFFCBE72B688A
:1022E000022252421A612800FEF7BAFFC9E72B68A2
:1022F0000E4A1A61280000F09EF8C8E72B680C4AC5
:102300001A61280000F098F8C5E72B684122524274
:102310001A612800FFF75DFFC1E72B6821225242B6
:102320001A61280000F086F8BDE7C0467FDFFFFF96
:10233000FFFEFFFF0368204A904202D01F4A9042EE
:1023400003D1702293434A6813431B4A90420ED034
:102350001A4A90420BD01A4A904208D0194A904229
:1023600005D0194A904202D0184A904203D1184A27
:102370001A40CB681343802293434A691343036096
:102380008B68C3620B6883620B4B984208D00D4B7D
:10239000984205D00C4B984202D00C4B984201D188
:1023A0000B690363012343610269134203D003698C
:1023B0000122934303617047002C01400004004058
:1023C000002000400040014000440140004801401E
:1023D000FFFCFFFF70B5041E2AD03D23C35C002B19
:1023E00020D03D2502236355210001C9FFF7A2FF3C
:1023F00001234822A3540A3AA3540132A3540132C0
:10240000A3540132A3540132A3540132A354013224
:10241000A3540132A3540132A3540132A35463558F
:10242000002070BD3C330022C254FFF795FED8E770
:102430000120F6E7704770477047000030B5EFF3B2
:102440001084012282F3108801680B68124D2B4022
:102450000B6084F31088EFF3108182F31088026818
:1024600093680E4C2340936081F31088C36E012B58
:1024700006D08C232022C2500023C366436730BDA0
:10248000EFF3108183F31088026813681024A343CC
:10249000136081F31088ECE7DFFEFFFFFEFFFFEF24
:1024A00010B5040083680269134342691343C2698B
:1024B000134301680A686A48024013430B602268AC
:1024C000536868490B40E1680B435360A369226A73
:1024D0001A4321688B686448034013438B60226869
:1024E000D36A0F218B43616A0B43D36223685F4A2F
:1024F00093420AD05E4A93423DD05E4A93425BD0FB
:102500005D4A934248D010230BE05C4B5A6D032385
:102510001340022B42D02AD8002B41D0012B41D1AD
:102520000333E06980221202904247D0042B00D18D
:102530008FE078D8002B00D184E0022B71D1504875
:10254000626A504B5200D15AFEF7C8FC61684B08D2
:10255000C018FEF7C3FC0200103A4B4B9A4200D958
:102560007CE023680004000CD860002061E0032BAD
:102570001AD10533D5E7414B5A6D0C231340082B74
:1025800014D005D8002B13D0042BCAD01023C8E7D1
:102590000C2B0FD1043BC4E70023C2E70223C0E7A2
:1025A0000023BEE71023BCE71023BAE70223B8E7F5
:1025B0000023B6E71023B4E70023B2E7042B2DD0A5
:1025C00022D8002B24D0022B1CD12D48626A2D4B1F
:1025D0005200D15AFEF782FC400061684B08C018D7
:1025E000FEF77CFC0200103A274B9A4234D882B2A4
:1025F0000F239A434008083B034013432268D360EB
:10260000002016E0012014E0082BDFD0012010E0AC
:10261000FFF7ACFC0028D9D100200AE0FFF77EFBD1
:10262000F8E7012005E0082B02D18020000287E7AF
:10263000012001236A22A352023AA35200236367B6
:10264000A36710BDFFF792FC002800D078E70020B8
:10265000EFE7FFF763FBF7E70120EAE70120E8E790
:10266000F369FFCFFFCFFFFFFFF4FF1100380140F8
:102670000044004000480040004C00400010024070
:102680000024F400A0380008EFFF0000836A1B0755
:1026900006D5026853682C490B40816B0B4353608D
:1026A000836ADB0706D50268536828490B40C16A74
:1026B0000B435360836A9B0706D50268536824491D
:1026C0000B40016B0B435360836A5B0706D50268BE
:1026D000536820490B40416B0B435360836ADB0610
:1026E00006D5026893681C490B40C16B0B4393608D
:1026F000836A9B0606D50268936818490B40016CF3
:102700000B439360836A5B060BD5026853681449D8
:102710000B40416C0B435360426C80235B039A4235
:102720000AD0836A1B0606D5026853680D490B4020
:10273000C16C0B4353607047026853680A490B40F1
:10274000816C0B435360ECE7FF7FFFFFFFFFFDFF52
:10275000FFFFFEFFFFFFFBFFFFEFFFFFFFDFFFFFBE
:10276000FFFFEFFFFFFFF7FFFFFF9FFFF8B5CE462C
:10277000474680B506000D0017009946089B98460D
:102780003368DC692C40641B63425C41BC4233D13A
:1027900043460133F4D0FEF721FF4B46C01A4045B3
:1027A0002FD84346002B2ED0326813685B07E7D53D
:1027B000802DE5D0402DE3D0D3691B0710D4D36919
:1027C0001B05DDD580231B0113623000FFF736FEA9
:1027D00090232022F2500C3B0022F25403200CE004
:1027E000082414623000FFF729FE9023F4500C3BBC
:1027F0000022F254012000E00020C0BCB946B046DF
:10280000F8BD0320F9E70320F7E7F0B5C64600B5A9
:1028100082B004000D0090461E008823C358202B70
:1028200066D1002969D0002A69D0826880235B01C3
:102830009A4204D10369002B01D1CB0761D49023C4
:102840000022E250083B2132E250FEF7C7FE0700AB
:1028500054234246E2520233E252A26880235B01D3
:102860009A4202D00023984618E02369002B2AD010
:102870000023984612E088232022E250032038E00B
:1028800043461B882268DB05DB0D936202239C46CE
:10289000E0445623E25A013A92B2E2525623E35AF6
:1028A0009BB2002B12D000963B000022802120001A
:1028B000FFF75CFF0028DED1002DE1D02A782368E5
:1028C0009A620135E5E7A8460025E7E700963B0058
:1028D000002240212000FFF749FF002803D1882370
:1028E0002022E25005E088232022E250032000E06D
:1028F000022002B080BCB846F0BD0120F9E70120FB
:10290000F7E70120F5E7000030B583B0040090231D
:102910000022C250FEF762FE050023681B681B07F9
:1029200010D423681B685B072BD420238822A35074
:102930000432A3500023E3662367083AA35400201F
:1029400003B030BD8021234B009303000022890394
:102950002000FFF70BFF0028E3D0EFF310810123E5
:1029600083F310882268136880208343136081F307
:10297000108888232022E250043B0022E2547D3854
:10298000DEE78021134B00932B000022C9032000B7
:10299000FFF7ECFE0028C8D0EFF31080012282F38D
:1029A000108821680B680C4D2B400B6080F3108859
:1029B000EFF3108082F3108821688B6893438B605B
:1029C00080F310888C231F32E250083B0022E2542F
:1029D0000320B5E7FFFFFF01DFFEFFFF10B5041E78
:1029E00030D08823C358002B22D088232422E250E1
:1029F0002268136801218B431360A36A002B1DD149
:102A00002000FFF74DFD012811D0226853680E49C0
:102A10000B405360226893682A218B43936022689D
:102A2000136829390B4313602000FFF76DFF10BDB9
:102A300084330022C254FEF7EFFCD6E72000FFF7F4
:102A400025FEDDE70120F2E7FFB7FFFFF8B5040040
:102A5000436E002B05D101336A228352023A83521E
:102A6000F8BD026895686D0E07231D409268520FED
:102A70001340084FF85CC000074EF15CFEF774FA93
:102A80006A23E052785DC000715DFEF76DFA68233D
:102A9000E052E5E7C0380008B838000870B5842374
:102AA000C35C012B15D084240126065588252423D8
:102AB0004351026813681168B1431160064A13401C
:102AC0000022426601680B6020234351025500201A
:102AD00070BD0220FCE7C046FFFFFFDFF8B5040031
:102AE0000A008423C35C012B1BD084250120605580
:102AF00088262423A35123681F681968814319601D
:102B000020688368DB00D908114381602000FFF74B
:102B10009DFF23681F602023A351002363550020DD
:102B2000F8BD0220FCE70000F8B504000B00842289
:102B3000825C012A1BD0842501206055882624222E
:102B4000A251226817681168814311602268916858
:102B500008480140194391602000FFF777FF236880
:102B60001F602023A351002363550020F8BD0220DD
:102B7000FCE7C046FFFFFFF1842801D00330704717
:102B80000020FCE710B500F0CFFB002010BDF0B531
:102B900085B004000D00466807680823C05EFFF793
:102BA000EBFF228A03AB019300902B003900300029
:102BB00000F08CFB012802D1039805B0F0BD002085
:102BC000FBE710B5002800D1013000F0E1FC002047
:102BD00010BD030008334360012252428260C3608B
:102BE000036100230360704700230361704743685B
:102BF0004B609A688A60516099600861036801338C
:102C00000360704730B50D686B1C10D003000833AB
:102C10001C005B681A68AA42FAD963684B60996025
:102C20008C606160086103680133036030BD046932
:102C3000F3E70369416882688A60416851605A68B5
:102C4000824206D0002202611A68013A1A601868AE
:102C5000704782685A60F5E782B000230193064B03
:102C60001B68013301D072B6FEE772B6019B002BE0
:102C7000FCD002B07047C0465C000020000000009D
:102C80000B4A13681868203080F30988022080F30B
:102C90001488BFF36F8F3FBCAE4608BC04BC62B65D
:102CA0001847C046C046C046C046C046C046C0469B
:102CB0002010002010B5031F802464041C60043B16
:102CC0001960044B01000C390B600300203B1A60B3
:102CD000403810BD592C000870470000044B80227A
:102CE00052051A60BFF34F8FBFF36F8F7047C04616
:102CF00004ED00E072B6044A136801331360BFF3B9
:102D00004F8FBFF36F8F70475C000020064B1B682E
:102D1000002B01D172B6FEE7013B034A1360002B82
:102D200000D162B67047C0465C000020EFF310800F
:102D300072B6704780F310887047000000000000F2
:102D4000EFF309800E4B1A6820381060F0C044463B
:102D50004D4656465F46F0C008B572B600F030FCEE
:102D600062B60CBC116808681030F0C8A046A946CD
:102D7000B246BB4680F309882038F0C81847C046E1
:102D80002010002010B5FFF7D1FF040000F002FB77
:102D9000002803D0034B802252051A602000FFF761
:102DA000C9FF10BD04ED00E010B5084C00232360FE
:102DB000074A1360074B1868FA218900FEF78EF85E
:102DC0000138054B18600723236010BD10E000E0B8
:102DD00018E000E05000002014E000E010B50C4BBB
:102DE0001968FF2212040A431A601968FF221206AA
:102DF0000A431A60FFF7D8FF064B00221A60FFF75C
:102E00003FFF00F0DDFBFFF727FF002010BDC046AD
:102E100020ED00E05C000020124A53071FD0D11DB6
:102E200007239943C0231B015B1A9B180A000E4815
:102E3000026000214160D318083B072083430B4800
:102E4000036059601960991A51601360084B19604A
:102E5000084B1960084B802212061A607047C02385
:102E60001B01E4E7F8020020F0020020EC02002041
:102E7000E4020020E8020020D802002010B5124B26
:102E80001A001B688342FBD351685418844208D04F
:102E900041684418A34209D00360904200D01060FA
:102EA00010BD4068091851601000F1E7074C246814
:102EB000A34206D05B68C918416013681B680360B1
:102EC000EBE70460E9E7C046F0020020EC020020D6
:102ED00070B5040000F056FA304B1B68002B15D07B
:102EE0002F4B1B68234247D1002C47D022000832C9
:102EF000640702D007239A430832002A45D0294BA1
:102F00001B68934243D328490C6804E0FFF784FF11
:102F1000E6E721001C006368934202D22368002B7D
:102F2000F7D11E4B1B68A34233D00D6808352368C8
:102F30000B6063689B1A102B08D9A018410701D0B9
:102F400072B6FEE743606260FFF798FF626815495A
:102F50000B689B1A0B60154909688B4201D2134913
:102F60000B600F4B1B681343636000232360104A00
:102F700013680133136002E0002500E0002500F033
:102F800093FA6B0707D072B6FEE70025F7E7002536
:102F9000F5E70025F3E7280070BDC046EC020020ED
:102FA000D8020020E8020020F0020020E402002005
:102FB000E002002070B5002823D00500083D6B68B2
:102FC000104A12681A4201D172B6FEE701000839B0
:102FD0000968002901D072B6FEE70838040093435F
:102FE000436000F0CFF96168074A13685B1813600B
:102FF0002800FFF743FF054A13680133136000F010
:1030000053FA70BDD8020020E8020020DC02002044
:10301000084B1B681B68002B04D1074B012252424E
:103020001A607047034B1B68DB68DB685A68024B09
:103030001A60F6E7680F0020000F002010B50400AA
:10304000006BFFF7B7FF2000FFF7B4FF10BD0000D3
:10305000F0B5DE4657464E46C0B582469B46089EB2
:103060000A9F3B6B20488446624492009B180722CB
:1030700093439946002932D000240F2C07D80B5DCA
:103080003D1934352B70002B01D00134F5E7432373
:103090000022FA54062E00D90626FE627E64002421
:1030A000BC64381DFFF7A0FD38001830FFF79CFD09
:1030B0003F6107239B1BBB617F62FC645023FC5470
:1030C0005A4651464846FFF7F5FD3860099B002BEC
:1030D00000D01F60E0BCBB46B246A946F0BD342319
:1030E0000022FA54D6E7C046FFFFFF3F70B5002428
:1030F00007E0A3001B1998000E4BC018FFF769FDED
:103100000134062CF5D90C4D2800FFF762FD0B4C5D
:103110002000FFF75EFD0A48FFF75BFD0948FFF757
:1031200058FD0948FFF755FD084B1D60084B1C6012
:1031300070BDC046940F0020800F00206C0F00204F
:10314000500F00203C0F0020240F0020680F0020AB
:10315000640F002010B50400FFF7CCFD1F4A136870
:10316000013313601E4B1B68002B0CD01D4B1B68DA
:10317000002B0DD11A4B1B68DA6AE36A9A4207D812
:10318000174B1C6004E0164B1C601368012B1FD00A
:10319000154A136801331360E26A144B1B689A42A4
:1031A00001D9124B1A60211D93009B189B001048F7
:1031B0001818FFF71CFDFFF7A9FD0A4B1B68002B31
:1031C00005D0074B1B68DA6AE36A9A4203D310BD45
:1031D000FFF78CFFDCE7FFF781FDF8E7200F002009
:1031E00020100020140F0020040F0020180F0020D2
:1031F000940F002010B514E0FFF77CFD0B4BDB684B
:10320000DC68201DFFF715FD094A1368013B1360B8
:10321000084A1368013B1360FFF778FD2000FFF7B1
:103220000DFF044B1B68002BE6D110BD3C0F0020A6
:10323000200F0020380F002010B5FFF7DBFF034BF5
:103240001B68012BF9D9FFF749FDF6E7940F002021
:1032500070B504000D00174B1E68174B186804303A
:10326000FFF7E7FC631C0DD03419134B1B685C603F
:10327000A64210D9114B18680F4B19680431FFF79B
:10328000C1FC70BD002DEFD00B4B196804310C4808
:10329000FFF7ADFCF5E70B4B1868074B19680431D5
:1032A000FFF7B0FC084B1B68A342EAD9064B1C6031
:1032B000E7E7C0461C0F002020100020640F00200C
:1032C000240F0020680F0020000F0020F0B587B009
:1032D0000490059116001F009000FFF7F9FD041EF1
:1032E0001DD05420FFF7F4FD051E12D00463002307
:1032F000039302900D9B01930C9B00933B003200C3
:1033000005990498FFF7A4FE2800FFF723FF01208A
:1033100007E02000FFF74EFE0120404201E00120BF
:10332000404207B0F0BD000000B583B00F4910481F
:10333000104B0193002300938022FFF7C7FF012861
:1033400003D001300FD003B000BD72B60A4B01228A
:1033500052421A60094B02321A60094B00221A606D
:10336000FFF73CFDEFE772B6FEE7C046FC3700080A
:1033700039320008FC0E0020000F0020140F00203E
:103380001C0F0020024A1368013313607047C046C7
:10339000F80E0020F8B5394B1B68002B66D1384B6E
:1033A0001D6801351D60002D12D1364B1B681B684E
:1033B000002B01D072B6FEE7324A1168324B186812
:1033C00010601960314A136801331360FFF720FE63
:1033D0002F4B1B68AB423FD900272E4B1B68D96A85
:1033E0002D4A8B005B1899008B58012B00D90127BF
:1033F0002A4B1B68002B3ED001273CE00127214BC4
:103400001B681B68002B29D01E4B1B68DB68DC681F
:1034100063689D4227D3261D3000FFF70AFCA36A8C
:10342000002B03D020001830FFF703FCE26A1C4B8E
:103430001B689A4201D91A4B1A6093009B18980096
:10344000154BC0183100FFF7D2FBE26A114B1B6825
:10345000DB6A9A42D2D2D2E70027D0E70C4B012296
:1034600052421A60B9E70A4A1360B6E70D4A136878
:103470000133136000273800F8BDC046F80E002065
:103480001C0F0020680F0020640F0020080F002090
:10349000000F002020100020940F00200C0F0020AF
:1034A000180F0020100F002070B5314B1B68002B47
:1034B00001D172B6FEE7FFF71DFC2D4B1A68013AE9
:1034C0001A601B68002B4DD12A4B1B68002B01D1C1
:1034D000002448E00024284B1B68002B23D0264BF7
:1034E000DB68DC6820001830FFF7A3FB251D2800EF
:1034F000FFF79FFBE36A214A1268934201D91F4AF2
:1035000013609800C01880001D4BC0182900FFF7F9
:103510006EFBE26A1B4B1B68DB6A9A42DBD31A4BD9
:1035200001221A60D7E7002C01D0FFF771FD174B7D
:103530001C68002C0AD1144B1C68002C13D0FFF718
:10354000CDFB01240FE0013C002C07D0FFF722FF48
:103550000028F8D00C4B01221A60F4E70B4B002234
:103560001A60E8E70024FFF7D1FB200070BDC046D9
:10357000F80E0020200F0020500F0020180F002010
:10358000940F0020201000200C0F0020100F0020AE
:1035900010B5041E0FD0094B1B68002B01D072B66A
:1035A000FEE7FFF7EFFE00212000FFF751FEFFF7D7
:1035B0007BFF002801D1FFF791FB10BDF80E002022
:1035C00010B51E4B1B68002B03D01D4B01221A6047
:1035D00010BD1B4B00221A601A4B1B681A499A0037
:1035E000D21890004258002A05D1002B01D0013B8F
:1035F000F4E772B6FEE708009900CC18A200821822
:10360000546864685460C9188A00083212189442D9
:103610000BD00D4A9900C918880012185268D16859
:103620000A4A1160074A1360D2E7646802009900F1
:10363000C918880012185460EBE7C046F80E002045
:103640000C0F0020180F0020940F002020100020E5
:103650000D488546FDF7A0FF0C480D490D4A002393
:1036600002E0D458C4500433C4188C42F9D30A4A37
:103670000A4C002301E013600432A242FBD3FCF7A2
:10368000B9FDFDF76BFEFEE7009000200000002072
:1036900060000020D03800086000002024100020C6
:1036A000FEE70000F8B5C046F8BC08BC9E4670476F
:0C36B000F8B5C046F8BC08BC9E46704748
:1036BC00F0370008C91100080000000000000000ED
:1036CC0080000000E4370008F91100080000000039
:1036DC000000000080000000D83700082D12000800
:1036EC000000000000000000800000005C0C0008DE
:1036FC00600B0008600B0008600B0008600B0008F2
:10370C00600B0008600B0008600B0008600B0008E1
:10371C00600B0008600B0008C00B0008740B00085D
:10372C00600B0008600B0008600B0008600B0008C1
:10373C00740B0008600B0008600B0008600B00089D
:10374C00600B0008D60A00089C0B0008F20B00085E
:10375C00600B0008600B0008D40B0008600B00081D
:10376C009C0B0008600B0008600B0008760C00082E
:10377C007461736B20257320697320737461727488
:10378C00696E670D0A0000007461736B202573204D
:10379C00697320657865637574696E670D0A00003E
:1037AC007461736B20257320697320656E64696E78
:1037BC00670D0A006465665F74736B0074736B321B
:1037CC000000000074736B33000000006D795461CD
:1037DC00736B3033000000006D795461736B3032C1
:1037EC000000000064656661756C745461736B0055
:1037FC0049444C4500000000232D302B20000000D4
:10380C00686C4C00656667454647000030313233C2
:10381C0034353637383941424344454600000000C0
:10382C00303132333435363738396162636465662A
:10383C00000000000000000000000000000000007C
:10384C000000000001000000020000000300000066
:10385C000400000000000000000000000000000058
:10386C00000000000000000000000000000000004C
:10387C000000000001000000020000000300000036
:10388C000400000006000000070000000800000013
:10389C0009000000010002000400060008000A00F4
:1038AC000C001000200040008000000108040204FD
:0C38BC00080101010101010307010000E7
:0438C8003D100008A7
:0438CC0015100008CB
:1038D000040000200000000064000020CC00002054
:1038E0003401002000000000000000000000000083
:1038F00000000000000000000000000000000000C8
:1039000000000000000000000000000000000000B7
:1039100000000000000000000000000000000000A7
:103920000024F4000100000004000000AAAAAAAAD2
:040000050800365168
:00000001FF
