:020000040800F2
:1000000000900020F53000087515000877150008ED
:1000100000000000000000000000000000000000E0
:10002000000000000000000000000000791500083A
:1000300000000000000000007B1500087D1500088E
:100040004531000800000000453100084531000836
:1000500045310008453100084531000845310008A8
:100060000000000045310008453100084531000816
:100070004531000845310008453100080000000006
:100080004531000845310008453100084531000878
:100090004531000845310008453100084531000868
:1000A0004531000845310008453100084531000858
:0800B00045310008453100084C
:1000B8000CB410B500249CB00291069109491EABFE
:1000C80004910791084904CB059102A901931B9457
:1000D80000F0FAFA029B1C701CB010BC08BC02B0FD
:1000E8001847C046FFFFFF7F0802FFFF0EB410B598
:1000F80000240C499DB0049107910B491FAB059151
:100108000A4904CB02900690086802A901931B943F
:1001180000F0DAFA029B1C701DB010BC08BC03B0DA
:100128001847C046FFFFFF7F0802FFFF00000020BE
:10013800F0B50500830749D0541E002A45D00300B6
:100148000326CAB202E00135013C3ED301332A70CE
:100158003342F8D1032C30D9FF220A401502AD18DA
:100168002A04AD180F2C34D92700103F3F093E014F
:10017800B4461E001A001036664415605560956036
:10018800D56010329642F8D101373F01DB190F27AD
:100198000C22274022403C00002A0ED03E1FB60801
:1001A800B400A4461A001C1D644420C2A242FCD11B
:1001B80003240136B6009B193C40002C05D0C9B277
:1001C8001C19197001339C42FBD1F0BD03001400C7
:1001D800C0E72700E2E7C046014B18687047C046F1
:1001E8000000002070B50D4B0D4D5E1BB610AB42E4
:1001F80005D0002408CD01349847A642FAD803F068
:1002080055FB084B084D5E1BB610AB4205D00024C9
:1002180008CD01349847A642FAD870BD1C3A0008A8
:100228001C3A0008203A00081C3A00087047C046EB
:100238007047C0467047C0467047C0467047C046C2
:100248007047C04601207047012070477047C0467C
:100258007047C04610B583070AD00300032102E0A7
:1002680001330B4205D01A78002AF9D1181A10BDAB
:10027800030019680C4A0D4C8A188A4322420FD190
:100288005968094A04338A188A43224208D15968AE
:10029800054A04338A188A432242F1D000E0013328
:1002A8001A78002AFBD1E1E7FFFEFEFE80808080FD
:1002B80070B50500002915D00C1F2368002B23DB1F
:1002C800280000F0FDF8274A1368002B05D0A34248
:1002D8000BD92168601883422CD028006360146011
:1002E80000F0F6F870BDA34210D81A005B68002B26
:1002F800F9D1106811188C4218D02CD3636054605F
:10030800280000F0E5F8EDE7E418D9E7116850187F
:10031800A04214D01FD8216860188342EED1186813
:100328005B684118216063605460E9E723681B1823
:100338001360E5E718685B6841182160CDE720681D
:100348000918501811608342DAD118685B6841189F
:1003580011605360D4E70C2328002B6000F0B8F834
:10036800C0E7C046C001002070B5104E05003368D4
:100378000C00002B15D02100280000F0FBFC431CCA
:100388000CD00323C41C9C43A04205D0211A28008A
:1003980000F0F0FC013001D0200070BD012464425F
:1003A800FAE7002100F0E6FC3060E4E7BC01002039
:1003B800F8B50323CE464746CD1C9D4308350600B5
:1003C80080B50C2D1ED20C25A9421DD8300000F096
:1003D80077F83A4F7A68002A1AD0140004E0636864
:1003E8002200002B14D01C0023685B1BF7D40B2BB6
:1003F80027D961192560A2425BD051600B60636800
:100408004B600DE0002DDFDA0C230020336014E090
:1004180029003000FFF7A8FF0400431C19D005602D
:10042800300000F055F8200007220B30231D9043C0
:10043800C21A984201D01B1AA350C0BCB946B04694
:10044800F8BD6368A24202D05360E9E743467B6087
:10045800E6E77B689846002B24D0444663689846B4
:10046800002BFAD12368002199463000A14400F0FE
:1004780081FC814516D123683000ED1A2900FFF769
:1004880073FF01300ED023687A685B1923605368C4
:10049800002B02D1DAE71A005B68A342FBD10023E4
:1004A8005360BDE70C233000336000F011F80020E2
:1004B800C3E779600B6063684B60B1E7BC0100205B
:1004C80010B50248FFF7BCFE10BDC046AC010020C5
:1004D80010B50248FFF7BCFE10BDC046AC010020B5
:1004E800F0B546464F46D646C0B58E6880460C00E5
:1004F80091461D0008689E4239D80C228B5E9022D6
:10050800D200134210D135002A00494600F0DAFB28
:100518000020A3689B1BA36023685B192360E0BCD1
:10052800BA46B146A846F0BD0969421A92466069C2
:1005380042001218D70FBF18681C7F1050443A00A9
:10054800B84201D9070002005B0512D511004046E8
:10055800FFF72EFF061E1FD05246216900F056FCF9
:10056800A389124A134080221343A38106E01E0088
:10057800CAE7404600F092FC061E09D030005346F8
:1005880050446761FF1A266120602E00A760BBE710
:1005980040462169FFF78CFE0C2342461360402237
:1005A8000120A38940421343A381B8E77FFBFFFFE3
:1005B800F0B545465746DE464E46E0B5136883B06B
:1005C800984693680D0092460190002B6FD0002347
:1005D80000249B460A688B6849E00C216B5E9021D9
:1005E800C9000B422BD068692969561A42001218B3
:1005F800D00F8218701C521000199146904201D9F0
:10060800814602008020C00003423AD011000198C0
:10061800FFF7CEFE071E3DD03200296900F0F6FB39
:10062800AB89284A134080221343AB814B46B81943
:100638009E1B2F61AE602700260028606B61320088
:10064800594600F03FFB51465046AB682A68896816
:10065800DB1B9219091BAB602A60816027D04146D9
:1006680009688B4641464C6808218C46E0441F00C7
:100678001000002CF3D01E009C42AED227002600AA
:10068800DDE7019800F00AFC071ECFD1296901981F
:10069800FFF70EFE0C23019A012013604022AB895C
:1006A80040421343AB8152460023936000E0002090
:1006B80000235246536003B0F0BCBB46B246A9467D
:1006C800A046F0BD7FFBFFFFF0B5DE4657464E461D
:1006D8004546E0B51C008B898246894693469DB005
:1006E8001B0603D50B69002B00D1F5E0002304ADF0
:1006F8006B6120336B761033AB765B461B787F4F8C
:100708000394002B78D05C4604E063780134002B16
:1007180000D17EE0252BF8D15B46E61A5C4500D077
:100728007BE02378002B67D0012300225B420492F0
:100738000593002200230692079300234332AB540B
:10074800AB6501339B46013406E05A46C01B824024
:100758001C0029680A432A6005223800217800F025
:100768001BFB631C1E000028EFD12A68D10602D5A6
:10077800432120306854110702D543212B206854A7
:1007880021782A2955D1039B191D1B680391002B39
:1007980000DA7CE0EB6061782E2960D0584C0322A7
:1007A800200000F0F9FA002806D04023001B8340FF
:1007B8002A68013613432B603178731C062251488E
:1007C8009B46297600F0E8FA002866D04E4B002BAD
:1007D80056D003AA009229004A4650464B4B00E0E7
:1007E80000BF80464346013306D06B6943446B61C2
:1007F8005B461B78002B86D14B469B895B0600D550
:1008080079E068691DB0F0BCBB46B246A946A0466F
:10081800F0BD5B46E61A5C45EED033005A464946C1
:100828005046FFF75DFE0130E6D06B699B196B619E
:1008380077E70800303826000928ADD8EA681400A0
:1008480000E00133A20012191978520014180800A8
:1008580030380928F5D91E00EC602E299ED1717810
:100868002A2924D1039BB01C1A1D1B6803926B60B4
:10087800002B02DA01235B426B60B17806008DE73A
:100888000722039B0733934308330393ADE75B4287
:10089800EB6002231A432A607DE703AA009229002D
:1008A8004A465046194B00F0D7F880469AE70800A8
:1008B8000023303801366B60092800D96EE71A002A
:1008C80093009B1871785B001A18080030380136BD
:1008D8000928F5D96A6061E74021FFF769FD4B46B1
:1008E80018601861002803D040234A465361FDE68A
:1008F8000C23524613600120404283E75839000810
:10090800603900086439000800000000E9040008A4
:10091800F8B557464E464546DE46E0B51F000A9BE9
:10092800924698460A698B6806000C009A4200DADB
:100938001A0053461A604323E35C002B02D0514649
:1009480001320A602268910661D553465246062054
:100958001B680233136022681100104208D1192065
:1009680083460020E1688146A344994247DC110090
:100978004323E35C5A1E934189060AD53020E118C7
:100988004331087045215A1C615CA2184332023376
:1009980011702200390030004332C04701301DD0A9
:1009A800534606251B68E1689C462368A2682069AF
:1009B8002B40042B31D0824239DD00239946121A8C
:1009C800914400251A3402E001354D452FDA012300
:1009D800220039003000C0470130F5D101204042E3
:1009E800F0BCBB46B246A946A046F8BD01239C46CA
:1009F8005346E5681B68E144ED1A4D4524DD0123A3
:100A08005A4639003000C0470130EFD1E6E70621E9
:100A180011420ED05A1E9341BBE76346C91ACB4315
:100A2800DB170B4099468242C9DC0029C9DC00204B
:100A3800D6E719205346834600201B68E1688146A3
:100A4800A3449942DBDC92E743232168E35C5A1E06
:100A58009341890692D49CE7F0B54E4699464323C4
:100A68009C4657464546DE468C446346E0B587B00B
:100A780002930C00097E90460700109A002914D0B2
:100A88000B00583BDBB2202B48D88B489B00C3583F
:100A98009F46136821681D1D606915601B680E0656
:100AA80002D4490600D5E3E018600023029D2361C3
:100AB8004B46210000933800434605AAFFF728FF5C
:100AC80001301ED02A00414638002369C84701304A
:100AD80017D02368E068059E9B071BD5B04219DD37
:100AE80019239A460025A24404E0E0680135831BD7
:100AF800AB420FDD0123524641463800C84701305A
:100B0800F3D10120404207B0F0BCBB46B246A9462B
:100B1800A046F0BDB042F6DA3000F4E725004223E3
:100B280001204235E154432300222061E254BFE70B
:100B380013682168181D10600D0602D44D0600D5F3
:100B48009AE01A6816006368002A00DA98E05B4A9F
:100B580093460A2203924CE0136820681D1D156015
:100B6800060602D4400600D584E01E68534B9B4617
:100B78006F2900D195E00A23039336E01368250016
:100B8800191D11601A68422301204235E254CAE750
:100B98001368191D11601D6800212800626800F0A3
:100BA800FBF8002800D185E0401B6060BBE72023EC
:100BB80021680B43236045217820605440498B46C7
:100BC8001168081D10601D0631D45D062FD50E88EA
:100BD800DA0702D5202213432360002E03D12022F6
:100BE8002368934323601023039343230022E25492
:100BF8006368A360002B1EDB042122688A432260FD
:100C0800002E18D1029D002B4ED1039B082B24D017
:100C1800029B5B1B23614BE745235821E15427497D
:100C280023688B461168081D10601D06CDD50E6817
:100C3800CEE72368BFE7039B9A46029D30005146E2
:100C480000F0AEF95B465B5C013D2B70330006009B
:100C58005345F3D2039B082BDAD12368DB07D7D59A
:100C6800626823699A42D3DC3023013D2B70CFE7B9
:100C780018801AE71E8879E700269E5F320062E72F
:100C880043222D20A054A360002B02DB04239943A8
:100C980021600A239A46094B76429B460A2303930E
:100CA800CBE708230393A0E75B4625001B78423572
:100CB8002B70AAE7606836E7CC3800086C39000862
:100CC80080390008F0B588420AD98B18984207D2B3
:100CD800531E002A03D0CA5CC254013BFBD2F0BDAC
:100CE80005000F2A0AD8561E002AF8D00023CC5C2B
:100CF8001A00EC5401339642F9D1F0E703240300BB
:100D080026000B431E401C4230D11500103D2D0912
:100D180003000C00AC462F013F1825681D6065686C
:100D28005D60A5689D60E5681034DD601D001033C6
:100D3800BD42F2D165460F230C2401352D01491916
:100D480013404519144213D08C59AC5104369C1BDE
:100D5800032CF9D8043B9B0801339B00ED18C918F4
:100D680003231A40561E002AC0D1B8E7561EBDE715
:100D78001A00B8E7002370B5064C05000800236088
:100D880000F0FCFB431C00D070BD2368002BFBD097
:100D98002B60F9E79801002070B5CCB283070FD01B
:100DA800531E002A0AD0032504E00130284208D047
:100DB800013B03D30278A242F7D170BD0020FCE7C3
:100DC8001300032B12D9FF220A401502AD182A047A
:100DD8000C4EAD1803E0043B0430032B06D902681F
:100DE80009496A40511891433142F4D0C218002B86
:100DF80003D1E3E701309042E0D00378A342F9D170
:100E0800DBE7C04680808080FFFEFEFEF0B505006F
:100E18000F2A33D90324030026000B431E401C422B
:100E280037D11500103D2D0903000C00AC462F01E9
:100E38003F1865685D60A5689D60E568DD602568A8
:100E480010341D601D001033BD42F2D165460F23DA
:100E58000C2401352D0149191340451914421AD0A3
:100E68008C59AC5104369C1B032CF9D8043B9B08C5
:100E780001339B00ED18C91803231A40561E002A97
:100E880006D00023CC5C1A00EC5401339642F9D109
:100E9800F0BD561EF5E71A00F0E7C046F0B5C646A5
:100EA80007000E00140000B500292DD0002A1DD01F
:100EB80000F030F88046844203D835004308A34246
:100EC80010D321003800FFF773FA051E10D0220056
:100ED80044450FD831002800FFF798FF310038004B
:100EE800FFF7E6F9280080BCB846F0BDFFF7E0F947
:100EF8000025F7E7310042462800FFF787FF310059
:100F08003800FFF7D5F9EDE71100FFF751FA0500B2
:100F1800E8E7C0460B1F1B68181F002B00DB704753
:100F28000B58C018FBE7C046002934D00123002223
:100F380010B488422CD301242407A14204D2814250
:100F480002D209011B01F8E7E400A14204D2814260
:100F580002D249005B00F8E7884201D3401A1A43DD
:100F68004C08A04202D3001B5C0822438C08A04214
:100F780002D3001B9C082243CC08A04202D3001BCA
:100F8800DC082243002803D01B0901D00909E3E744
:100F9800100010BC704701B5002000F05FF802BDDA
:100FA8000029F8D003B5FFF7C1FF0EBC4243891AE8
:100FB8001847C046002941D010B404004C40A4464C
:100FC80001230022002900D54942002800D54042CB
:100FD80088422CD301242407A14204D2814202D2A0
:100FE80009011B01F8E7E400A14204D2814202D2C0
:100FF80049005B00F8E7884201D3401A1A434C08BD
:10100800A04202D3001B5C0822438C08A04202D3F2
:10101800001B9C082243CC08A04202D3001BDC081A
:101028002243002803D01B0901D00909E3E7100077
:101038006446002C00D5404210BC704701B5002022
:1010480000F00CF802BDC0460029F7D003B5FFF741
:10105800B3FF0EBC4243891A1847C0467047C046C2
:1010680002B4714649084900095C49008E4402BC33
:101078007047C046844608006146FFE71FB502F086
:10108800C4FB002801D40021C8421FBD10B502F0DE
:1010980047FB4042013010BD10B502F0B6FB0028F6
:1010A80001DB002010BD012010BDC04610B502F0C4
:1010B800ACFB002801DD002010BD012010BDC0469A
:1010C80010B502F054FB002801DC002010BD0120FF
:1010D80010BDC04610B502F04AFB002801DA002016
:1010E80010BD012010BDC0461C2101231B049842DD
:1010F80001D3000C10391B0A984201D3000A0839A1
:101108001B09984201D30009043902A2105C401857
:101118007047C046040302020101010100000000FB
:101128000000000010B5064C2378002B07D1054BB2
:10113800002B02D0044800E000BF0123237010BD3B
:10114800C401002000000000B4380008044B10B5AA
:10115800002B03D00349044800E000BF10BDC0467F
:1011680000000000C8010020B4380008F0B58BB0BA
:101178001422002105A8FEF7DBFF194B596B042246
:1011880011435963596B0A400192019A5A6B202600
:1011980032435A635A6B32400292029A5A6B0125C3
:1011A8002A435A635A6B2A400392039A5A6B0224C1
:1011B80022435A635B6B23400493049BA027FF05DB
:1011C80000222021380000F07DFB059606950023BB
:1011D8000793089405A9380000F0BAFA0BB0F0BDDF
:1011E8000010024000B585B06B4618735973054866
:1011F80001235B420093033303AAEE2100F07CFD38
:1012080005B000BD7402002070B584B003AC207036
:101218000B4D01267642009601232200EE2128007C
:1012280000F06AFD009602232200EE21280000F05B
:101238002FFE607823781B02184304B070BDC046A7
:101248007402002072B6FEE710B51248124B036014
:10125800124B4360002383600122C2600361436133
:101268008361C361036200F0D9FC00280CD10948EE
:10127800002100F0C7FE002808D10648002100F030
:10128800EDFE002804D110BDFFF7DCFFFFF7DAFF01
:10129800FFF7D8FF7402002000540040BC7D701096
:1012A80010B51748174B0360E1235B024360002326
:1012B8008360C36003610C2242618361C36103627E
:1012C8004362836201F044FE002811D10C480021DA
:1012D80001F0BEFE00280DD10948002101F0DEFE14
:1012E800002809D1064801F093FE002806D110BD58
:1012F800FFF7A8FFFFF7A6FFFFF7A4FFFFF7A2FF7E
:10130800E00100200044004000B593B034220021E1
:1013180005A8FEF70DFF1022002101A8FEF708FF1F
:101328008020800000F0C4FE022305938022520032
:1013380008920022099240210A910C930D930E9273
:1013480006330F9380239B02109380239B051193F0
:1013580005A800F0D7FE00280ED107230193053B0E
:101368000293002303930493022101A801F078F962
:10137800002803D113B000BDFFF764FFFFF762FF39
:10138800F0B5C64600B58EB000F04AF9FFF7BCFFCD
:10139800FFF7ECFEFFF758FFFFF782FFB420FFF7D7
:1013A80033FF8046B220FFF72FFF0700BC20FFF76E
:1013B8002BFF06B2BE20FFF727FF05B22E21F4202F
:1013C800FFF710FF052000F051F9F620FFF71CFF8A
:1013D8004346C41A7C43E413F0022919FFF7EAFDD7
:1013E80020180830001102F057F90C4901F0BEFE30
:1013F80001F0A5FEC2B20A4901A8FEF777FE01A8CE
:10140800FEF728FF012382B206485B4201A901F0DA
:10141800B6FCFA20800000F029F9CFE7000020414F
:1014280050390008E001002000B583B00B4B196C5F
:10143800012211431964196C0A400092009ADA6B70
:10144800802149050A43DA63DB6B0B400193019B5A
:10145800C020C00000F01CF903B000BD001002401D
:1014680010B58EB004001422002109A8FEF760FE12
:101478001C22002102A8FEF75BFE2268174B9A4245
:1014880001D00EB010BD2023029302A801F0C8F9C4
:10149800002820D1124C626B02231A436263626BEC
:1014A80013400093009BC0239B00099312230A93C7
:1014B80000230B930C9306330D9309A9094800F0F8
:1014C80047F9E36B802292031343E363E36B134012
:1014D8000193019BD5E7FFF7B5FEDBE70054004019
:1014E800001002400004005010B58EB00400142211
:1014F800002109A8FEF71CFE1C22002102A8FEF705
:1015080017FE2268174B9A4201D00EB010BD022375
:10151800029302A801F084F900281FD1124BDA6B5C
:10152800802189020A43DA63DA6B0A400092009A42
:10153800596B0122114359635B6B13400193019B63
:101548000C2309930A3B0A930B9200230C930D92E8
:10155800A02009A9C00500F0FBF8D6E7FFF772FE46
:10156800DCE7C0460044004000100240FEE7FEE70A
:101578007047704710B500F067F810BD10B503004C
:101588000C4A0D49521A0D490968002907D00B4920
:101598000868C318934206D8084A136010BD074963
:1015A80007480860F3E7FEF717FE0C2303600120E5
:1015B8004042F3E70090002000040000C802002029
:1015C800D00200207047000010B50400114B1978B4
:1015D800002901D1012010BDFA208000FFF7A4FCEA
:1015E80001000D4B1868FFF79FFC00F0ADF80028CC
:1015F8000DD1032C01D90120EDE701300022210093
:10160800404200F09DF8054B1C600020E3E70120F4
:10161800E1E7C04654000020500000205800002098
:1016280010B5084A116880235B000B431360002043
:10163800FFF7CAFF041E02D00124200010BDFFF7E7
:10164800F3FEFAE700200240034B1B78034A1168B7
:101658005B1813607047C04654000020CC0200207D
:10166800014B18687047C046CC02002070B50400D2
:10167800FFF7F6FF0500631C02D0044B1B78E41843
:10168800FFF7EEFF401BA042FAD370BD54000020C4
:10169800034A136803490B40034313607047C0466D
:1016A80000000140FFF9FFFF70B5002811DB830837
:1016B800134DC0339B005C5903221040C000FC321C
:1016C80016008640B44389010A40824022435A5199
:1016D80070BD0F230340083B9B0806339B00094A53
:1016E800944663445C6803221040C000FC32150035
:1016F8008540AC4389010A40824022435A60E7E7AB
:1017080000E100E000ED00E0013880235B0498422E
:101718000FD2094A50600948036A1B021B0AC021FC
:1017280009060B430362002393600733136000200C
:1017380070470120FCE7C04610E000E000ED00E043
:1017480010B5FFF7B1FF10BD10B5FFF7DDFF10BDF5
:10175800F0B5002359E086685F000324BC40A64327
:10176800CC68BC4034438460446894434E6836096E
:10177800012232409A402243426056E0DE08083691
:10178800B600375805321A4092000F249440A743F8
:101798000C69944022003A43325059E0032600E095
:1017A8000026A64034003C43424E18329200945121
:1017B8003768EA433E00AE434C68E40201D53E0078
:1017C8002E433C4C266067683E0016404C68A402D5
:1017D80001D53E002E43374C66608426A7593E004B
:1017E80016404C68A40301D53E002E43314C842793
:1017F800E6518026A65932404C68E40301D52A00F8
:1018080032432C4D80242A5101330C682200DA40DF
:101818004ED001229A40250015401442F4D04E685B
:1018280003243440013C012C95D94C680322224002
:10183800032A08D0C4685E000322B24094438A6831
:10184800B2402243C2604C6803222240022A95D04B
:1018580004685E0003221700B740BC434F683A4053
:10186800B240224302604C68C02292021442CBD09C
:101878009A0814001834A4000E4EA75903241C40DB
:10188800E4000F26A640B743A026F605B04287D04D
:10189800094EB04208D0094EB04207D0084EB042B7
:1018A80000D17BE705267CE701267AE7022678E760
:1018B800F0BDC04600180240000400500008005067
:1018C800000C0050002A01D0816170478162FCE75A
:1018D800026893699B0701D50023936203689A699C
:1018E800D20703D49A6901210A439A61704700001C
:1018F80010B58905890D120411431943029B194338
:1019080049004908046862685B0D8020C0000340F4
:10191800034803439A4313000B43636010BDC0465A
:10192800FF63FF03F0B5C64600B504000D001700BD
:1019380001688B69102216001E401A4200D175E01A
:101948001023CB61002398460026206883699B06F4
:1019580031D4002E2FD16B1CF7D0FFF781FEC01BAE
:10196800A84201D8002DF0D121684B688022D2010D
:1019780013404222A25CD2B28869000403D5002B2E
:1019880001D1202A0ED123689B699B06DDD4FFF77D
:1019980067FEC01B1928F6D9202342461A439046F1
:1019A8000126D2E74A688023DB0113434B60FFF727
:1019B80057FE0700E7E7002E01D12023C361042664
:1019C800434633431E00012522689369D90504D58F
:1019D80001210E43FF31D16101255A0506D50822A0
:1019E800164322688021C900D16101259B051FD5B6
:1019F80002231E43236880229200DA610125200019
:101A0800FFF766FF226853680B490B405360636C0D
:101A18003343636441232022E25400232232A35437
:101A2800023AA354280080BCB846F0BD0025CBE795
:101A3800002DF7D0E3E7C04600E800FE70B50400CB
:101A48000D00160023689B699B0720D432002900EB
:101A58002000FFF767FF00281BD16B1CF2D0FFF7AF
:101A6800FFFD801BA84201D8002DEBD123689B699C
:101A78009B07E7D4636C2022134363644123E25439
:101A880000232232A354023AA354012000E000208C
:101A980070BD0120FCE7F0B5D6464F4680B583B04F
:101AA80007000D00160099460A9B9A463B689C69F8
:101AB8002C40641B63425C410196B44228D15246D3
:101AC80049463800FFF72EFF002827D14B4601333F
:101AD800ECD0FFF7C5FD5346C01A484502D84B461F
:101AE800002BE3D13B689B692B405B1B5A42534157
:101AF800019A9342DAD17B6C202213437B64412301
:101B0800FA5400232232BB54023ABB54012000E0AD
:101B1800002003B0C0BCBA46B146F0BD0120F8E7CA
:101B280070B504000D00160003E023689B699B064E
:101B380012D523689B699B061BD43200290020001C
:101B4800FFF7F0FE002816D1FFF78AFD801BA84298
:101B5800EBD8002DEDD1E8E7636C202213436364D2
:101B68004123E25400232232A354023AA354012011
:101B780000E0002070BD0120FCE70000F8B504007B
:101B88000E001700002518E000236364FFF768FDC6
:101B9800C01BB04201D8002E0FD1002D0DD12368F3
:101BA8009B695B0709D4636C202213436364412358
:101BB800E254013B0022E254013523689B695B072C
:101BC80028D4002D26D13A0031002000FFF7AAFEC4
:101BD800002800D00125226893699B06D6D5002DE0
:101BE800D4D193699369DB06CED51023D3610C3B1E
:101BF800636423682022DA6121684B680648034041
:101C08004B604123E25400232232A354023AA354E6
:101C18000135BBE72800F8BD00E800FE10B5041E3A
:101C280060D04123C35C002B48D041232422E254D6
:101C38002268136801218B431360636822682A496C
:101C48000B4013612268936828490B409360E3684E
:101C5800012B39D0A168226884231B020B439360AF
:101C6800E368022B37D02268536821490B40536040
:101C7800226851681F4B0B4353602268D3681B4985
:101C88000B40D360236962691343A2691202216879
:101C98001343CB60E369216A22680B43136022680F
:101CA800136801210B4313600023636441221F3131
:101CB800A15423630132A354002010BD40330022F5
:101CC800C254FFF7CDFBB0E7A168226880231B024E
:101CD8000B439360C4E72268516880231B010B43C0
:101CE8005360C5E70120E8E7FFFFFFF0FF7FFFFF34
:101CF800FFF7FFFF00800002F0B585B004000E007A
:101D0800029203930A9D4123C35C202B00D0AEE0CE
:101D18002033C35C012B00D1ACE040230122C25424
:101D2800FFF79EFC07008021009019230122090279
:101D38002000FFF7B0FE002800D09DE041232122BB
:101D4800E2540133113AE25400236364029A626256
:101D5800039A62856363638D9BB2FF2B1ED9FF23B1
:101D6800238580235B04228D002A1CD022680299D7
:101D780009789162626A01326262628D013A92B2B6
:101D88006285228D013A92B222850132D2B23E4951
:101D9800009131002000FFF7ABFD18E0638D23852B
:101DA80080239B04DFE7D2B237490091310020003D
:101DB800FFF79EFD0BE0628D92B222858023D2B29E
:101DC800002100919B0431002000FFF791FD638DF5
:101DD8009BB2002B34D03A0029002000FFF72EFEDA
:101DE80000284BD1626A236812789A62636A0133C9
:101DF8006362638D013B9BB26385238D013B9BB27C
:101E08002385628D92B2002AE1D0002BDFD10097A2
:101E18002B00002280212000FFF73DFE00282FD153
:101E2800638D9BB2FF2BC6D9FF2323857F3B0022FE
:101E380000925B04FF3231002000FFF759FDC6E72E
:101E48003A0029002000FFF76BFE00281AD123680A
:101E58002022DA6121684B680C4D2B404B604123EE
:101E6800E25400232232A354023AA35400E0022091
:101E780005B0F0BD0220FBE70120F9E70120F7E7F4
:101E88000120F5E70120F3E70020008000E800FECC
:101E9800F0B585B004000F00029203930A9D412318
:101EA800C35C202B00D09BE02033C35C012B00D106
:101EB80099E040230122C254FFF7D2FB060080219B
:101EC80000901923012209022000FFF7E4FD0028F1
:101ED80000D08AE041232222E2540133123AE2542C
:101EE80000236364029A6262039A62856363638D66
:101EF8009BB2FF2B0BD9FF2323857F3B3F4A0092E0
:101F08005B04FF2239002000FFF7F2FC18E0628D25
:101F180092B222858023D2B2384900919B043900BD
:101F28002000FFF7E5FC0BE0628D92B2228580234A
:101F3800D2B2002100919B0439002000FFF7D8FCA1
:101F4800638D9BB2002B34D0320029002000FFF7AC
:101F580015FE00284BD123685A6A636A1A70636AAF
:101F680001336362238D013B9BB22385628D013A65
:101F780092B26285628D92B2002AE1D0002BDFD145
:101F880000962B00002280212000FFF784FD002806
:101F98002FD1638D9BB2FF2BC6D9FF2323857F3BAF
:101FA800002200925B04FF3239002000FFF7A0FCFA
:101FB800C6E7320029002000FFF7B2FD00281AD139
:101FC80023682022DA6121684B680D4D2B404B6055
:101FD8004123E25400232232A354023AA35400E0DE
:101FE800022005B0F0BD0220FBE70120F9E701203F
:101FF800F7E70120F5E70120F3E7C0460024008059
:1020080000E800FEF0B54123C35C202B20D120332B
:10201800C35C012B1ED040240122025541252423F4
:1020280043550668336893433360066833680A4F3C
:102038003B403360066833680B43336001680B68C4
:1020480013430B6020234355002303550020F0BDA4
:102058000220FCE70220FAE7FFEFFFFFF0B541237B
:10206800C35C202B1ED12033C35C012B1CD0402421
:1020780001220255412524234355066833689343BA
:10208800336006683368094F3B40090219433160E1
:1020980001680B6813430B60202343550023035545
:1020A8000020F0BD0220FCE70220FAE7FFF0FFFF66
:1020B80010B5104A136810490B400343136080237E
:1020C8009B00984201D0002010BD0C4B1B685800A3
:1020D800C01840000A49FEF727FF0130054B5B692D
:1020E8005B0503D5002803D00138F7E70020EBE7AC
:1020F8000320E9E700700040FFF9FFFF50000020CF
:1021080040420F0070B582B0041E00D129E2036876
:10211800DB0739D5C14A916838230B40D1680322BF
:102128000A40102B26D0082B26D063688022520242
:1021380093427FD0A022D202934200D181E0B74BD4
:102148001A68B7490A401A601A68B6490A401A60FC
:102158006368002B00D180E0FFF782FA0500AF4BDF
:102168001B689B0310D4FFF77BFA401B6428F6D941
:102178000320F7E1032AD6D1A84B1B689B0303D59C
:102188006368002B00D1EFE123689B0731D5A34A90
:10219800916838230B40D16803220A40102B6AD07B
:1021A800002B6BD19D4A1268520503D5E268002ABC
:1021B80000D1DBE1994842689B490A4061690902FC
:1021C8000A434260002B0DD1036898490B402169EE
:1021D8000B4303600368DB0A07221A40944BD34081
:1021E800944A1360944B1868FFF7EEF9002800D062
:1021F800BEE123681B0700D481E0884B9A68382326
:102208001340182B73D0A369002B00D1B4E0834A84
:10221800136E01210B431366FFF722FA05007F4B6B
:102228001B6E9B076BD4FFF71BFA401B0228F6D9DD
:10223800032097E1794A116880235B020B431360FE
:1022480086E7764B19688022D2020A431A60196819
:10225800802252020A431A607AE7FFF701FA050062
:102268006E4B1B689B038FD5FFF7FAF9401B642858
:10227800F6D9032076E1022A92D193E7E368002B8E
:1022880022D0664A136869490B4021690B431360E1
:10229800116880235B000B431360FFF7E1F9050029
:1022A8005E4B1B685B0506D4FFF7DAF9401B022872
:1022B800F6D9032056E159494B685B4A13406269D5
:1022C800120213434B6094E7544A13685B490B406E
:1022D8001360FFF7C5F90500504B1B685B0588D5EF
:1022E800FFF7BEF9401B0228F6D903203AE14B4B11
:1022F8001B6E9B0703D5A369002B00D13AE1236825
:102308005B0700D4A2E0454B9A6838231340202B82
:1023180045D0424BDB6BDB004AD4404BDA6B802163
:1023280049050A43DA63DB6B0B400193019B0125E6
:10233800434B1B68DB053DD5A368012B4ED0052B0D
:1023480052D0364BDA6D01218A43DA65DA6D0331F2
:102358008A43DA65A368002B50D0FFF781F906009D
:102368002E4BDB6D9B076FD4FFF77AF9801B354B3B
:102378009842F5D90320F5E0284A136E01218B43D2
:102388001366FFF76DF90500244B1B6E9B07B6D546
:10239800FFF766F9401B0228F6D90320E2E01F4B3D
:1023A800DB6D9B0752D5A368002B4FD10120D9E0E4
:1023B8000025BDE7224A116880235B000B431360A8
:1023C800FFF74EF906001E4B1B68DB05B4D4FFF778
:1023D80047F9801B0228F6D90320C3E00F4AD36DC2
:1023E80001210B43D365B5E70C4BDA6D04210A4391
:1023F800DA65DA6D03390A43DA65ABE7FFF730F9D6
:102408000600064BDB6D9B071ED5FFF729F9801BDD
:102418000C4B9842F5D90320A4E0C04600100240B6
:10242800FFFFFEFFFFFFFBFFFF80FFFFFFC7FFFF70
:102438000024F4005000002058000020FFFEFFFF99
:102448000070004088130000012D1ED0E369002BA6
:1024580000D191E04F4A916838220A40102A5ED094
:10246800022B18D04B4A13684B490B401360FFF7F7
:10247800F7F80400474B1B689B0149D5FFF7F0F8B4
:10248800001B0228F6D903206CE0424AD36B43496B
:102498000B40D363DAE73F4A13683F490B401360A8
:1024A800FFF7DEF805003B4B1B689B0106D5FFF7DD
:1024B800D7F8401B0228F6D9032053E0354AD368E1
:1024C80037491940236A606A0343A06A000203433C
:1024D800E06A0343206B03430B43D36011688023F6
:1024E8005B040B431360D16880235B050B43D36007
:1024F800FFF7B6F80400274B1B689B0106D4FFF7CB
:10250800AFF8001B0228F6D903202BE0002029E0B1
:10251800204AD36823490B40D360002022E0012BD6
:102528002CD01C4BDA6803231340216A8B4227D135
:1025380070231340616A8B4224D1FE21C9011140E6
:10254800A36A1B0299421FD1F8239B031340E16A37
:102558008B421BD1520F5207236B9A4218D100208D
:1025680000E0012002B070BD0120FBE70120F9E77F
:102578000120F7E70120F5E70020F3E70120F1E764
:102588000120EFE70120EDE70120EBE70120E9E773
:102598000120E7E700100240FFFFFFFEFFFFFFEF0B
:1025A8008C80C11FFCFFFEEF10B52A4B9B683822B8
:1025B8001A4207D1274B1A68D20A07231340264824
:1025C800D84010BD234B9A6838231340082B3BD0C2
:1025D800204B9A6838231340102B0DD01D4B9A6856
:1025E80038231340202B31D01A4B9A6838231340D4
:1025F800182B26D00020E4E7164AD1680D3B0B4083
:10260800D2681209072111400131032B0FD012485B
:10261800FEF78AFC0F4BDA68120A7F2313405843EF
:102628000C4BD968490F0131FEF77EFCC9E70B480E
:10263800FEF77AFC074BDA68120A7F2313405843E7
:10264800EEE7FA20C001BCE70448BAE780200002A0
:10265800B7E7C046001002400024F40000127A00D8
:1026680070B504000D00002800D1AAE0574B1A6885
:10267800072313408B4221D323689A070ED55B07A3
:1026880005D5534A9168E023DB010B439360504A18
:10269800936850490B40A1680B4393602368DB079C
:1026A80054D56368012B20D0022B3BD0002B3FD19F
:1026B800474A126852051CD401206AE0434A13684D
:1026C80007218B432B431360FEF7CAFF06003F4BDD
:1026D8001A6807231340AB42CED0FEF7C1FF801B18
:1026E8003D4A9042F3D9032053E0394A12689203D5
:1026F80069D537498A680720824313438B60FEF700
:10270800AFFF0600324B9B6838221A406368DB0033
:102718009A421BD0FEF7A4FF801B2F4B9842F1D999
:10272800032036E02A4A12689201E2D4012030E000
:10273800032B05D0264AD26D9207DAD4012028E06F
:10274800234A126E9207D4D4012022E01F4B1A6844
:1027580007231340AB421DD823685B0706D51C4AE4
:1027680093681E490B40E1680B439360FFF71CFF19
:10277800174B9A68120A0F231340194A9B009A585C
:102788001F231340D840174B1860174B1868FEF7E3
:102798001BFF70BD0D4A136807218B432B43136041
:1027A800FEF75EFF0600094B1A6807231340AB4289
:1027B800D2D0FEF755FF801B074B9842F3D9032070
:1027C800E7E70120E5E70120E3E7C04600200240F3
:1027D80000100240FFF0FFFF88130000FF8FFFFF8B
:1027E800B43900085000002058000020014B186838
:1027F8007047C0465000002010B5FFF7F7FF064BA2
:102808009A68120B07231340044A9B009A581F2307
:102818001340D84010BDC04600100240943900084B
:10282800F0B583B0040003689B0362D5584BDB6B9B
:10283800DB001ED4564BDA6B802149050A43DA6364
:10284800DB6B0B400193019B0126524A11688023E0
:102858005B000B431360FEF703FF05004D4B1B683D
:10286800DB0508D4FEF7FCFE401B0228F6D9032539
:1028780002E00026E9E70025002D23D1444BD96D5D
:10288800C02292000B001340114210D0A2699A4254
:102898000DD03F4AD36D40490B40D06D802149028D
:1028A8000143D165D16D3D480140D165D365DB0752
:1028B80010D4002D06D1364AD36D37490B40A16993
:1028C8000B43D365012E15D1314AD36B34490B40E4
:1028D800D3630FE0FEF7C4FE07002D4BDB6D9B07AB
:1028E800E7D4FEF7BDFEC01B2E4B9842F5D9032551
:1028F800DFE700252368DB0706D5254A536D03214A
:102908008B4361680B43536523689B0706D5204AB0
:10291800536D0C218B43A1680B43536523689B06B9
:1029280006D51B4A536D20490B40E1680B4353659C
:1029380023685B040BD5164A536D9B009B0861699D
:102948000B43536562698023DB059A4211D02368E3
:102958001B050BD50E4A536D14490B4021690B43D7
:10296800536522698023DB019A4209D0280003B00D
:10297800F0BD074AD16880235B020B43D360E6E7CA
:10298800034AD16880235B020B43D360EEE7C0465D
:102998000010024000700040FFFCFFFFFFFFFEFF39
:1029A800FFFFFFEF88130000FFCFFFFFFF3FFFFF90
:1029B80030B5EFF31084012282F3108801680B68A8
:1029C800124D2B400B6084F31088EFF3108182F3D3
:1029D8001088026893680E4C2340936081F3108836
:1029E800C36E012B06D08C232022C2500023C3665D
:1029F800436730BDEFF3108183F3108802681368D2
:102A08001024A343136081F31088ECE7DFFEFFFF77
:102A1800FEFFFFEF10B504008368026913434269A3
:102A28001343C269134301680A686A4802401343A2
:102A38000B602268536868490B40E1680B43536098
:102A4800A369226A1A4321688B68644803401343C8
:102A58008B602268D36A0F218B43616A0B43D36270
:102A680023685F4A93420AD05E4A93423DD05E4A49
:102A780093425BD05D4A934248D010230BE05C4BF5
:102A88005A6D03231340022B42D02AD8002B41D081
:102A9800012B41D10333E06980221202904247D0D2
:102AA800042B00D18FE078D8002B00D184E0022BD2
:102AB80071D15048626A504B5200D15AFEF734FA2D
:102AC80061684B08C018FEF72FFA0200103A4B4B0A
:102AD8009A4200D97CE023680004000CD8600020EA
:102AE80061E0032B1AD10533D5E7414B5A6D0C230E
:102AF8001340082B14D005D8002B13D0042BCAD0B0
:102B08001023C8E70C2B0FD1043BC4E70023C2E70E
:102B18000223C0E70023BEE71023BCE71023BAE76F
:102B28000223B8E70023B6E71023B4E70023B2E78F
:102B3800042B2DD022D8002B24D0022B1CD12D48B9
:102B4800626A2D4B5200D15AFEF7EEF940006168D7
:102B58004B08C018FEF7E8F90200103A274B9A42D2
:102B680034D882B20F239A434008083B03401343EA
:102B78002268D360002016E0012014E0082BDFD083
:102B8800012010E0FFF738FE0028D9D100200AE024
:102B9800FFF70AFDF8E7012005E0082B02D18020A5
:102BA800000287E7012001236A22A352023AA352B6
:102BB80000236367A36710BDFFF71EFE002800D03F
:102BC80078E70020EFE7FFF7EFFCF7E70120EAE7F7
:102BD8000120E8E7F369FFCFFFCFFFFFFFF4FF1104
:102BE800003801400044004000480040004C0040CC
:102BF800001002400024F400F4390008EFFF000040
:102C0800836A1B0706D5026853682C490B40816B01
:102C18000B435360836ADB0706D50268536828496B
:102C28000B40C16A0B435360836A9B0706D5026851
:102C3800536824490B40016B0B435360836A5B075D
:102C480006D50268536820490B40416B0B4353601B
:102C5800836ADB0606D5026893681C490B40C16B82
:102C68000B439360836A9B0606D5026893681849EC
:102C78000B40016C0B439360836A5B060BD50268BB
:102C8800536814490B40416C0B435360426C8023DA
:102C98005B039A420AD0836A1B0606D5026853680A
:102CA8000D490B40C16C0B43536070470268536871
:102CB8000A490B40816C0B435360ECE7FF7FFFFF31
:102CC800FFFFFDFFFFFFFEFFFFFFFBFFFFEFFFFF23
:102CD800FFDFFFFFFFFFEFFFFFFFF7FFFFFF9FFF94
:102CE800F8B5CE46474680B506000D001700994650
:102CF800089B98463368DC692C40641B63425C413E
:102D0800BC4233D143460133F4D0FEF7A9FC4B460D
:102D1800C01A40452FD84346002B2ED0326813687E
:102D28005B07E7D5802DE5D0402DE3D0D3691B079D
:102D380010D4D3691B05DDD580231B011362300035
:102D4800FFF736FE90232022F2500C3B0022F2546B
:102D580003200CE0082414623000FFF729FE9023BA
:102D6800F4500C3B0022F254012000E00020C0BCCB
:102D7800B946B046F8BD0320F9E70320F7E7F0B5F8
:102D8800C64600B582B004000D0090461E00882398
:102D9800C358202B66D1002969D0002A69D08268DF
:102DA80080235B019A4204D10369002B01D1CB0730
:102DB80061D490230022E250083B2132E250FEF712
:102DC8004FFC070054234246E2520233E252A26803
:102DD80080235B019A4202D00023984618E02369B9
:102DE800002B2AD00023984612E088232022E250A4
:102DF800032038E043461B882268DB05DB0D93621D
:102E080002239C46E0445623E25A013A92B2E25227
:102E18005623E35A9BB2002B12D000963B000022A7
:102E280080212000FFF75CFF0028DED1002DE1D0D3
:102E38002A7823689A620135E5E7A8460025E7E77E
:102E480000963B00002240212000FFF749FF0028A0
:102E580003D188232022E25005E088232022E25073
:102E6800032000E0022002B080BCB846F0BD01207B
:102E7800F9E70120F7E70120F5E7000030B583B056
:102E8800040090230022C250FEF7EAFB05002368E5
:102E98001B681B0710D423681B685B072BD42023EF
:102EA8008822A3500432A3500023E3662367083A1C
:102EB800A354002003B030BD8021234B00930300AE
:102EC800002289032000FFF70BFF0028E3D0EFF36F
:102ED8001081012383F310882268136880208343BC
:102EE800136081F3108888232022E250043B0022DB
:102EF800E2547D38DEE78021134B00932B0000223B
:102F0800C9032000FFF7ECFE0028C8D0EFF31080BB
:102F1800012282F3108821680B680C4D2B400B604E
:102F280080F31088EFF3108082F3108821688B6893
:102F380093438B6080F310888C231F32E250083B48
:102F48000022E2540320B5E7FFFFFF01DFFEFFFF89
:102F580010B5041E30D08823C358002B22D08823F4
:102F68002422E2502268136801218B431360A36A6C
:102F7800002B1DD12000FFF74DFD012811D022683C
:102F880053680E490B405360226893682A218B438B
:102F980093602268136829390B4313602000FFF7F8
:102FA8006DFF10BD84330022C254FEF79DFAD6E7A8
:102FB8002000FFF725FEDDE70120F2E7FFB7FFFF5E
:102FC800F8B50400436E002B05D101336A22835201
:102FD800023A8352F8BD026895686D0E07231D40BA
:102FE8009268520F1340084FF85CC000074EF15C1E
:102FF800FDF7E0FF6A23E052785DC000715DFDF7E0
:10300800D9FF6823E052E5E7143A00080C3A0008B3
:1030180070B58423C35C012B15D084240126065582
:10302800882524234351026813681168B14311604D
:10303800064A13400022426601680B602023435170
:103048000255002070BD0220FCE7C046FFFFFFDFED
:10305800F8B504000A008423C35C012B1BD0842527
:103068000120605588262423A35123681F68196806
:103078008143196020688368DB00D90811438160A7
:103088002000FFF79DFF23681F602023A351002322
:1030980063550020F8BD0220FCE70000F8B50400E5
:1030A8000B008422825C012A1BD0842501206055F4
:1030B80088262422A251226817681168814311606A
:1030C8002268916808480140194391602000FFF781
:1030D80077FF23681F602023A35100236355002036
:1030E800F8BD0220FCE7C046FFFFFFF10D4885460A
:1030F800FEF768FA0C480D490D4A002302E0D4583F
:10310800C4500433C4188C42F9D30A4A0A4C002329
:1031180001E013600432A242FBD3FDF763F8FEF727
:103128002FF9FEE700900020000000205C0000203E
:10313800243A00085C000020D0020020FEE79E210F
:1031480010B5C905041CFDF7C5FF00280AD09E214B
:10315800201CC90500F0ECF800F080FA80231B065B
:10316800C01810BD201C00F079FAFAE7F0B5C30FBB
:1031780085B0440245000F1C640A2D0E0393029388
:103188000AD0FF2D3BD08023E400DB041C4300233E
:103198007F3D019500930EE0012301940093002CDC
:1031A80009D02000FDF7A0FF431F9C4076235B4217
:1031B8001B1A019300957D027E006D0A360EFF0FE3
:1031C800002E23D0FF2E2ED08023ED00DB041D43DC
:1031D80033007F3B002201980399C31A0098794075
:1031E8008000104301380E2823D8FDF739FF4D9988
:1031F80073999299734D4D927361616153000223E3
:1032080001950093002CD6D00133C3E72B0001228F
:10321800002DE0D02800FDF767FF431F9D4076236F
:103228005B421B1AD6E733000222002DD3D00132AD
:10323800D1E764016D01AC4228D31A200122641B36
:103248000126270052006400002F01DBA54201D8A7
:10325800641B324301380028F3D1601E84411443B3
:1032680018007F30002838DD620704D00F22224082
:10327800042A00D00434220103D5803318002B4AD5
:103288001440E508FE281DDD00250FE01B20002264
:10329800013BD5E78023DB031C4203D01D4201D14B
:1032A8002C00029780250299ED032543FF2009E0B1
:1032B8000399009A022AE7D0032A2FD00025280074
:1032C800012ACDD16D026D0AC0052843C9070843FC
:1032D80005B0F0BD2C003900ECE701220025121AD8
:1032E80028001B2AEEDC9E3325009C40D540631E37
:1032F8009C4125436B0704D00F232B40042B00D09F
:10330800043580232800DB0418401D420BD1ED084A
:10331800D8E780240023E4030293C3E70291C1E7BE
:1033280000252800CEE700250120CBE7FFFFFFF7A7
:10333800F0B54602730A85B001930393DA004B0295
:103348004400C50F580A02904800240E000EC90F09
:103358009B09FF281DD1FF277F42BC46A444002BB0
:103368000BD00F008D4200D0D8E06146002900D173
:1033780082E0002C73D1040061E001274F40BD4278
:1033880000D0D3E06146002976D0002CF3D0FF248A
:1033980016E00127BC464F40211ABD4200D095E0F7
:1033A800002942DD8026F604002820D1002B1CD0FD
:1033B800611E644517D19B18022433422ED16446FE
:1033C8005A0704D00F221A40042A00D004335A01A5
:1033D80000D432E101340026FF2C00D1E4E09C4EF9
:1033E800DB081E40E0E0FF2C04D11300E8E7FF2CC7
:1033F800FBD033431B2901DD531CE1E718002026CD
:10340800C840711A8B40591E8B4103439B185A01BF
:10341800D6D501340026FF2C00D1C5E001228D4904
:103428001A405B080B401343CAE7002924D0011B4C
:10343800002C03D08024E40422430DE00C00002A71
:10344800BED0611E012C05D19B1801345A01E5D468
:10345800013CB5E7FF2CB3D01B2902DD0133040082
:10346800AEE714002026CC40711A8A40511E8A41CA
:1034780022439B180400CAE7FE20611C01421ED1AA
:10348800002C0AD1002A9BD0002BAED09B185A01E1
:1034980096D5714A0C00134092E7FF24002A8FD07A
:1034A800002BA2D08023019ADB039A4204D3029A0C
:1034B8009A4201D23D000392039BDB0067E70C00B0
:1034C8000026FF2970D0D3185B0879E7002935DD7D
:1034D80000281CD1002B88D0611E012C07D164461E
:1034E800D31A5A0100D46BE79B019E0988E0FF2C90
:1034F80000D17AE701201B2907DC18002026C840E4
:10350800711A8B40591E8B411843131AE9E7FF2C97
:1035180000D16AE78020C0040343EBE76646002E2B
:1035280036D0002C19D004000D0049E76146002967
:103538002ED0002C14D004003D0041E7002927D0EC
:10354800061B002C1FD13D003400002A00D137E7AC
:10355800661E012C06D19B1AC3E70D000400F4E790
:103568003D00FBE7FF2C00D12AE701211B2E07DCD9
:103578002024A41B1100A240F140541EA241114373
:1035880004005B1AADE78021C9043D000A43ECE75B
:10359800FE20611C01422ED1002C1DD1002A0ED123
:1035A80025002600002BC7D1FF23E005DB057602A6
:1035B8001840760A3043ED07284305B0F0BD002BCC
:1035C80000D112E7D61A710101D59B1AB4E7331E50
:1035D80000D0F5E62500E7E7002A07D13D00002BDB
:1035E80000D0D4E680261D00F6032BE0002B00D087
:1035F80058E71300CBE6D61A710115D53D009E1A7F
:103608003000FDF771FD330005388340844210DC3B
:103618002022001B0130121A19009340C1405A1E83
:10362800934100240B43CBE6002EE9D1350034004A
:10363800BAE7094A241A1340C2E6DE08FF2CB3D1C0
:10364800002EB1D08023DB03FF241E43ACE7C04625
:10365800FFFF7F1FFFFFFF7DFFFFFFFB41024300CE
:10366800C20F490A00201B0E7E2B03DD9D2B02DDB5
:10367800084BD0187047802000040843952B05DDBF
:10368800963B9840002AF5D04042F3E79621CB1AA2
:10369800D840F7E7FFFFFF7F70B503000400051E61
:1036A8000ED0C21785185540C40F2800FDF71CFD21
:1036B8009E231B1A962B0ADC08282CD00838854034
:1036C8006A02D805520A1043E407204370BD992BBB
:1036D8001CDD05222900121AD14002001B32954038
:1036E8002A00551EAA4111430D002A000B4E3240F4
:1036F800690704D00F212940042900D00432510160
:1037080002D59F2332401B1AD508D9E7421F052846
:10371800EBD09540E9E79623D2E7C046FFFFFFFBD1
:1037280070B54A02440245004E00C30F640A0120E6
:103738002D0E520A360EC90FFF2D02D0FF2E07D1CB
:1037480070BDFF2EFCD12243FAD14B401800F7E799
:103758000120B542F4D19442F2D18B4205D0002D1C
:10376800EED12000431E9841EAE70020E8E730B593
:103778004A0244024500C30F4800640A2D0E520A4B
:10378800000EC90FFF2D0ED1002C38D1FF2804D010
:103798000120002B06D0023804E0002A2FD11000A7
:1037A8008B42F5D130BDFF280BD1002A27D1002D3F
:1037B80001D1002C1FD08B42EAD1002B1DD018005C
:1037C800F0E7002D0ED00028E2D08B42E0D18542F0
:1037D800DEDCF2DB9442DBD800209442E2D2834262
:1037E800EDD10AE00028E4D1002A02D1002CD9D07A
:1037F800CEE7002C06D1081ED4D1012000E002201B
:103808004042CFE78B42E5D0C2E730B54A024402D6
:103818004500C30F4800640A2D0E520A000EC90F56
:10382800FF2D0FD1002C3BD1FF2804D00120002B05
:1038380007D0023805E00220002A02D110008B428E
:10384800F4D130BDFF280CD1FD38002AF9D1002D64
:1038580001D1002C1FD08B42E8D1002B1DD01800BD
:10386800EFE7002D0ED00028E0D08B42DED1854254
:10387800DCDCF2DB9442D9D800209442E1D28342C6
:10388800EDD10AE00028E4D1002A02D1002CD8D0DA
:10389800CCE7002C06D1081ED3D101204042D0E746
:1038A8000220CEE78B42E5D0C0E70000F8B5C0465D
:1038B800F8BC08BC9E467047F8B5C046F8BC08BCC2
:0438C8009E46704761
:1038CC00200C0008240B0008240B0008240B000813
:1038DC00240B0008240B0008240B0008240B000800
:1038EC00240B0008240B0008240B0008840B000890
:1038FC00380B0008240B0008240B0008240B0008CC
:10390C00240B0008380B0008240B0008240B0008BB
:10391C00240B0008240B00089A0A0008600B00080E
:10392C00B60B0008240B0008240B0008980B0008A9
:10393C00240B0008600B0008240B0008240B000863
:10394C003A0C0008202575200D0A0000232D302B81
:10395C0020000000686C4C00656667454647000017
:10396C0030313233343536373839414243444546A9
:10397C00000000003031323334353637383961626B
:10398C006364656600000000000000000000000099
:10399C000000000000000000010000000200000018
:1039AC000300000004000000000000000000000004
:1039BC0000000000000000000000000000000000FB
:1039CC0000000000000000000100000002000000E8
:1039DC0003000000040000000600000007000000C7
:1039EC0008000000090000000100020004000600AD
:1039FC0008000A000C0010002000400080000001AC
:103A0C00080402040801010101010103070100007F
:043A1C005511000838
:043A20002D1100085C
:103A2400040000200000000060000020C800002006
:103A34003001002000000000000000000000000031
:103A44000000000000000000000000000000000072
:103A54000000000000000000000000000000000062
:103A64000000000000000000000000000000000052
:0C3A74000024F400010000000400000029
:04000005080030F5CA
:00000001FF
