:020000040800F2
:1000000000900020AD170008590500085B050008A6
:1000100000000000000000000000000000000000E0
:100020000000000000000000000000005D05000866
:1000300000000000000000005F05000861050008E6
:10004000FD17000800000000FD170008FD1700085C
:10005000FD170008FD170008FD170008FD17000830
:1000600000000000FD170008FD170008FD1700083C
:10007000FD170008FD170008FD170008000000002C
:10008000FD170008FD170008FD170008FD17000800
:10009000FD170008FD170008FD170008FD170008F0
:1000A000FD170008FD170008FD170008FD170008E0
:0800B000FD170008FD17000810
:1000B800F0B50500830749D0541E002A45D0030037
:1000C8000326CAB202E00135013C3ED301332A704F
:1000D8003342F8D1032C30D9FF220A401502AD185B
:1000E8002A04AD180F2C34D92700103F3F093E01D0
:1000F800B4461E001A0010366644156055609560B7
:10010800D56010329642F8D101373F01DB190F272D
:100118000C22274022403C00002A0ED03E1FB60881
:10012800B400A4461A001C1D644420C2A242FCD19B
:1001380003240136B6009B193C40002C05D0C9B2F7
:100148001C19197001339C42FBD1F0BD0300140047
:10015800C0E72700E2E7C04670B50D4B0D4D5E1BAA
:10016800B610AB4205D0002408CD01349847A6420A
:10017800FAD801F041FB084B084D5E1BB610AB42A4
:1001880005D0002408CD01349847A642FAD870BD9E
:10019800A0180008A0180008A4180008A018000853
:1001A800002934D00123002210B488422CD3012422
:1001B8002407A14204D2814202D209011B01F8E7B7
:1001C800E400A14204D2814202D249005B00F8E770
:1001D800884201D3401A1A434C08A04202D3001B9C
:1001E8005C0822438C08A04202D3001B9C082243CF
:1001F800CC08A04202D3001BDC082243002803D00D
:100208001B0901D00909E3E7100010BC704701B5CC
:10021800002000F05FF802BD0029F8D003B5FFF711
:10022800C1FF0EBC4243891A1847C046002941D075
:1002380010B404004C40A44601230022002900D534
:100248004942002800D5404288422CD30124240783
:10025800A14204D2814202D209011B01F8E7E4005D
:10026800A14204D2814202D249005B00F8E78842E9
:1002780001D3401A1A434C08A04202D3001B5C0861
:1002880022438C08A04202D3001B9C082243CC08BE
:10029800A04202D3001BDC082243002803D01B091C
:1002A80001D00909E3E710006446002C00D540425C
:1002B80010BC704701B5002000F00CF802BDC04624
:1002C8000029F7D003B5FFF7B3FF0EBC4243891AE4
:1002D8001847C0467047C04610B5064C2378002B17
:1002E80007D1054B002B02D0044800E000BF0123D2
:1002F800237010BD0C00002000000000001800084A
:10030800044B10B5002B03D00349044800E000BF9C
:1003180010BDC046000000001000002000180008B2
:1003280070B588B01422002103A8FFF7C1FE164B50
:10033800596B042211435963596B0A400092009A81
:100348005A6B20252A435A635A6B2A400192019A14
:100358005A6B012422435A635B6B23400293029B2E
:10036800A026F60500222021300000F06DFA039542
:100378000494002305930233069303A9300000F088
:10038800A9F908B070BDC0460010024072B6FEE779
:1003980010B51848184B0360E1235B0243608023C3
:1003A8005B0583600023C36003610C2242618361A3
:1003B800C36103624362836201F026F9002811D108
:1003C8000C48002101F0A0F900280DD109480021AE
:1003D80001F0C0F9002809D1064801F075F9002894
:1003E80006D110BDFFF7D2FFFFF7D0FFFFF7CEFF12
:1003F800FFF7CCFF280000200044004000B593B070
:100408003422002105A8FFF753FE1022002101A87D
:10041800FFF74EFE8020800000F024FA02230593A7
:100428008022520008920022099240210A910C93DE
:100438000D930E9206330F9380239B021093802313
:100448009B05119305A800F037FA00280ED1072361
:100458000193053B0293002303930493022101A80F
:1004680000F0D8FC002803D113B000BDFFF78EFFC1
:10047800FFF78CFF10B500F0A1F8FFF7BFFFFFF7FB
:100488004FFFFFF785FFA0202021C00500F0E2F90B
:10049800FA20800000F0B8F8F5E7000082B00A4BB7
:1004A800196C012211431964196C0A400092009AD0
:1004B800DA6B802149050A43DA63DB6B0B40019351
:1004C800019B02B07047C0460010024010B58EB0C4
:1004D80004001422002109A8FFF7EAFD1C220021CC
:1004E80002A8FFF7E5FD2268174B9A4201D00EB02B
:1004F80010BD0223029302A800F06CFD00281FD152
:10050800124BDA6B802189020A43DA63DA6B0A40FC
:100518000092009A596B0122114359635B6B134097
:100528000193019B0C2309930A3B0A930B92002326
:100538000C930D92A02009A9C00500F0CBF8D6E7CE
:10054800FFF724FFDCE7C0460044004000100240EB
:10055800FEE7FEE77047704710B500F043F810BD9E
:100568007047000010B50400114B1978002901D11B
:10057800012010BDFA208000FFF712FE01000D4B8C
:100588001868FFF70DFE00F0A1F800280DD1032C24
:1005980001D90120EDE7013000222100404200F09E
:1005A80091F8054B1C600020E3E70120E1E7C04615
:1005B80004000020000000200800002010B5084AB0
:1005C800116880235B000B4313600020FFF7CAFF0C
:1005D800041E02D00124200010BDFFF75FFFFAE7D8
:1005E80000200240034B1B78034A11685B18136014
:1005F8007047C04604000020BC000020014B18686A
:100608007047C046BC00002070B50400FFF7F6FF35
:100618000500631C02D0044B1B78E418FFF7EEFFBB
:10062800401BA042FAD370BD0400002070B500281A
:1006380011DB8308134DC0339B005C590322104023
:10064800C000FC3216008640B44389010A4082404B
:1006580022435A5170BD0F230340083B9B080633C1
:100668009B00094A944663445C6803221040C0001A
:10067800FC3215008540AC4389010A408240224380
:100688005A60E7E700E100E000ED00E00138802370
:100698005B0498420FD2094A50600948036A1B025A
:1006A8001B0AC02109060B4303620023936007332A
:1006B8001360002070470120FCE7C04610E000E00E
:1006C80000ED00E010B5FFF7B1FF10BD10B5FFF762
:1006D800DDFF10BDF0B5002359E086685F000324F4
:1006E800BC40A643CC68BC4034438460446894430F
:1006F8004E683609012232409A402243426056E051
:10070800DE080836B600375805321A4092000F2422
:100718009440A7430C69944022003A43325059E070
:10072800032600E00026A64034003C43424E18321F
:10073800920094513768EA433E00AE434C68E402A5
:1007480001D53E002E433C4C266067683E001640AB
:100758004C68A40201D53E002E43374C66608426BF
:10076800A7593E0016404C68A40301D53E002E430D
:10077800314C8427E6518026A65932404C68E40360
:1007880001D52A0032432C4D80242A5101330C68AC
:100798002200DA404ED001229A402500154014422A
:1007A800F4D04E6803243440013C012C95D94C68A0
:1007B80003222240032A08D0C4685E000322B24004
:1007C80094438A68B2402243C2604C6803222240A4
:1007D800022A95D004685E0003221700B740BC4384
:1007E8004F683A40B240224302604C68C0229202ED
:1007F8001442CBD09A0814001834A4000E4EA759FE
:1008080003241C40E4000F26A640B743A026F605A3
:10081800B04287D0094EB04208D0094EB04207D046
:10082800084EB04200D17BE705267CE701267AE72F
:10083800022678E7F0BDC0460018024000040050C8
:1008480000080050000C0050002A01D08161704758
:100858008162FCE7426913000B401B0491430B4380
:100868008361704710B5104A136810490B40034361
:10087800136080239B00984201D0002010BD0C4BD0
:100888001B685800C01840000A49FFF789FC01306E
:10089800054B5B695B0503D5002803D00138F7E7F2
:1008A8000020EBE70320E9E700700040FFF9FFFFB5
:1008B8000000002040420F0070B582B0041E00D135
:1008C80029E20368DB0739D5C14A916838230B4010
:1008D800D16803220A40102B26D0082B26D0636843
:1008E8008022520293427FD0A022D202934200D1AA
:1008F80081E0B74B1A68B7490A401A601A68B649C6
:100908000A401A606368002B00D180E0FFF776FE8A
:100918000500AF4B1B689B0310D4FFF76FFE401B0D
:100928006428F6D90320F7E1032AD6D1A84B1B681F
:100938009B0303D56368002B00D1EFE123689B0775
:1009480031D5A34A916838230B40D16803220A4065
:10095800102B6AD0002B6BD19D4A1268520503D523
:10096800E268002A00D1DBE1994842689B490A40C5
:10097800616909020A434260002B0DD10368984956
:100988000B4021690B4303600368DB0A07221A4006
:10099800944BD340944A1360944B1868FFF7E2FDD8
:1009A800002800D0BEE123681B0700D481E0884BF3
:1009B8009A6838231340182B73D0A369002B00D1F1
:1009C800B4E0834A136E01210B431366FFF716FE4A
:1009D80005007F4B1B6E9B076BD4FFF70FFE401B78
:1009E8000228F6D9032097E1794A116880235B022F
:1009F8000B43136086E7764B19688022D2020A43BC
:100A08001A601968802252020A431A607AE7FFF7CF
:100A1800F5FD05006E4B1B689B038FD5FFF7EEFDB8
:100A2800401B6428F6D9032076E1022A92D193E785
:100A3800E368002B22D0664A136869490B40216994
:100A48000B431360116880235B000B431360FFF7AF
:100A5800D5FD05005E4B1B685B0506D4FFF7CEFD90
:100A6800401B0228F6D9032056E159494B685B4AD6
:100A780013406269120213434B6094E7544A1368A7
:100A88005B490B401360FFF7B9FD0500504B1B682D
:100A98005B0588D5FFF7B2FD401B0228F6D9032075
:100AA8003AE14B4B1B6E9B0703D5A369002B00D182
:100AB8003AE123685B0700D4A2E0454B9A683823E3
:100AC8001340202B45D0424BDB6BDB004AD4404B14
:100AD800DA6B802149050A43DA63DB6B0B4001932B
:100AE800019B0125434B1B68DB053DD5A368012B02
:100AF8004ED0052B52D0364BDA6D01218A43DA6588
:100B0800DA6D03318A43DA65A368002B50D0FFF70A
:100B180075FD06002E4BDB6D9B076FD4FFF76EFD4E
:100B2800801B354B9842F5D90320F5E0284A136E0F
:100B380001218B431366FFF761FD0500244B1B6EF3
:100B48009B07B6D5FFF75AFD401B0228F6D90320AC
:100B5800E2E01F4BDB6D9B0752D5A368002B4FD1FA
:100B68000120D9E00025BDE7224A116880235B00F7
:100B78000B431360FFF742FD06001E4B1B68DB05A5
:100B8800B4D4FFF73BFD801B0228F6D90320C3E04D
:100B98000F4AD36D01210B43D365B5E70C4BDA6DD2
:100BA80004210A43DA65DA6D03390A43DA65ABE7EB
:100BB800FFF724FD0600064BDB6D9B071ED5FFF7EC
:100BC8001DFD801B0C4B9842F5D90320A4E0C046BC
:100BD80000100240FFFFFEFFFFFFFBFFFF80FFFF4B
:100BE800FFC7FFFF0024F4000000002008000020D9
:100BF800FFFEFFFF0070004088130000012D1ED08B
:100C0800E369002B00D191E04F4A916838220A40ED
:100C1800102A5ED0022B18D04B4A13684B490B4060
:100C28001360FFF7EBFC0400474B1B689B0149D599
:100C3800FFF7E4FC001B0228F6D903206CE0424AC7
:100C4800D36B43490B40D363DAE73F4A13683F4904
:100C58000B401360FFF7D2FC05003B4B1B689B0160
:100C680006D5FFF7CBFC401B0228F6D9032053E03A
:100C7800354AD36837491940236A606A0343A06A32
:100C880000020343E06A0343206B03430B43D36032
:100C9800116880235B040B431360D16880235B05D4
:100CA8000B43D360FFF7AAFC0400274B1B689B018A
:100CB80006D4FFF7A3FC001B0228F6D903202BE07B
:100CC800002029E0204AD36823490B40D360002044
:100CD80022E0012B2CD01C4BDA6803231340216A35
:100CE8008B4227D170231340616A8B4224D1FE21A5
:100CF800C9011140A36A1B0299421FD1F8239B0323
:100D08001340E16A8B421BD1520F5207236B9A4260
:100D180018D1002000E0012002B070BD0120FBE7DF
:100D28000120F9E70120F7E70120F5E70020F3E7C4
:100D38000120F1E70120EFE70120EDE70120EBE7D3
:100D48000120E9E70120E7E700100240FFFFFFFE6E
:100D5800FFFFFFEF8C80C11FFCFFFEEF10B52A4B91
:100D68009B6838221A4207D1274B1A68D20A0723F0
:100D780013402648D84010BD234B9A6838231340A7
:100D8800082B3BD0204B9A6838231340102B0DD0EA
:100D98001D4B9A6838231340202B31D01A4B9A6880
:100DA80038231340182B26D00020E4E7164AD168D0
:100DB8000D3B0B40D2681209072111400131032B6A
:100DC8000FD01248FFF7ECF90F4BDA68120A7F23AD
:100DD800134058430C4BD968490F0131FFF7E0F92C
:100DE800C9E70B48FFF7DCF9074BDA68120A7F23DB
:100DF80013405843EEE7FA20C001BCE70448BAE7BD
:100E080080200002B7E7C046001002400024F4002A
:100E180000127A0070B504000D00002800D1AAE085
:100E2800574B1A68072313408B4221D323689A072C
:100E38000ED55B0705D5534A9168E023DB010B43C8
:100E48009360504A936850490B40A1680B439360E4
:100E58002368DB0754D56368012B20D0022B3BD0D5
:100E6800002B3FD1474A126852051CD401206AE082
:100E7800434A136807218B432B431360FFF7BEFBDC
:100E880006003F4B1A6807231340AB42CED0FFF74A
:100E9800B5FB801B3D4A9042F3D9032053E0394A01
:100EA8001268920369D537498A6807208243134339
:100EB8008B60FFF7A3FB0600324B9B6838221A4071
:100EC8006368DB009A421BD0FFF798FB801B2F4B0F
:100ED8009842F1D9032036E02A4A12689201E2D4F6
:100EE800012030E0032B05D0264AD26D9207DAD4D0
:100EF800012028E0234A126E9207D4D4012022E070
:100F08001F4B1A6807231340AB421DD823685B07A1
:100F180006D51C4A93681E490B40E1680B43936051
:100F2800FFF71CFF174B9A68120A0F231340194A40
:100F38009B009A581F231340D840174B1860174B33
:100F48001868FFF70FFB70BD0D4A136807218B4324
:100F58002B431360FFF752FB0600094B1A6807235F
:100F68001340AB42D2D0FFF749FB801B074B984296
:100F7800F3D90320E7E70120E5E70120E3E7C046CE
:100F88000020024000100240FFF0FFFF881300001D
:100F9800FF8FFFFF3818000800000020080000201D
:100FA800014B18687047C0460000002010B5FFF7D5
:100FB800F7FF064B9A68120B07231340044A9B005D
:100FC8009A581F231340D84010BDC0460010024055
:100FD80018180008F0B583B0040003689B0362D5B5
:100FE800584BDB6BDB001ED4564BDA6B802149056E
:100FF8000A43DA63DB6B0B400193019B0126524ADB
:10100800116880235B000B431360FFF7F7FA0500B4
:101018004D4B1B68DB0508D4FFF7F0FA401B02288C
:10102800F6D9032502E00026E9E70025002D23D1A3
:10103800444BD96DC02292000B001340114210D0CE
:10104800A2699A420DD03F4AD36D40490B40D06DFA
:10105800802149020143D165D16D3D480140D165E8
:10106800D365DB0710D4002D06D1364AD36D374936
:101078000B40A1690B43D365012E15D1314AD36BBF
:1010880034490B40D3630FE0FFF7B8FA07002D4B44
:10109800DB6D9B07E7D4FFF7B1FAC01B2E4B9842D4
:1010A800F5D90325DFE700252368DB0706D5254AA0
:1010B800536D03218B4361680B43536523689B077A
:1010C80006D5204A536D0C218B43A1680B43536509
:1010D80023689B0606D51B4A536D20490B40E168DF
:1010E8000B43536523685B040BD5164A536D9B006D
:1010F8009B0861690B43536562698023DB059A424B
:1011080011D023681B050BD50E4A536D14490B40AB
:1011180021690B43536522698023DB019A4209D078
:10112800280003B0F0BD074AD16880235B020B4357
:10113800D360E6E7034AD16880235B020B43D360A0
:10114800EEE7C0460010024000700040FFFCFFFFC1
:10115800FFFFFEFFFFFFFFEF88130000FFCFFFFF39
:10116800FF3FFFFF30B5EFF31084012282F31088B0
:1011780001680B68124D2B400B6084F31088EFF365
:10118800108182F31088026893680E4C23409360A4
:1011980081F31088C36E012B06D08C232022C25005
:1011A8000023C366436730BDEFF3108183F31088D3
:1011B800026813681024A343136081F31088ECE7D6
:1011C800DFFEFFFFFEFFFFEF10B504008368026932
:1011D800134342691343C269134301680A686A48A2
:1011E800024013430B602268536868490B40E1686A
:1011F8000B435360A369226A1A4321688B686448C9
:10120800034013438B602268D36A0F218B43616AC2
:101218000B43D36223685F4A93420AD05E4A9342E3
:101228003DD05E4A93425BD05D4A934248D010233A
:101238000BE05C4B5A6D03231340022B42D02AD893
:10124800002B41D0012B41D10333E06980221202E7
:10125800904247D0042B00D18FE078D8002B00D1E2
:1012680084E0022B71D15048626A504B5200D15A27
:10127800FEF796FF61684B08C018FEF791FF020061
:10128800103A4B4B9A4200D97CE023680004000CCA
:10129800D860002061E0032B1AD10533D5E7414B14
:1012A8005A6D0C231340082B14D005D8002B13D0EB
:1012B800042BCAD01023C8E70C2B0FD1043BC4E77A
:1012C8000023C2E70223C0E70023BEE71023BCE7E0
:1012D8001023BAE70223B8E70023B6E71023B4E7E0
:1012E8000023B2E7042B2DD022D8002B24D0022BC8
:1012F8001CD12D48626A2D4B5200D15AFEF750FF7F
:10130800400061684B08C018FEF74AFF0200103A17
:10131800274B9A4234D882B20F239A434008083B9D
:10132800034013432268D360002016E0012014E034
:10133800082BDFD0012010E0FFF738FE0028D9D1B4
:1013480000200AE0FFF70AFDF8E7012005E0082B76
:1013580002D18020000287E7012001236A22A352DC
:10136800023AA35200236367A36710BDFFF71EFE6E
:10137800002800D078E70020EFE7FFF7EFFCF7E759
:101388000120EAE70120E8E7F369FFCFFFCFFFFF7D
:10139800FFF4FF11003801400044004000480040BD
:1013A800004C0040001002400024F40078180008A7
:1013B800EFFF0000836A1B0706D5026853682C49B3
:1013C8000B40816B0B435360836ADB0706D50268C9
:1013D800536828490B40C16A0B435360836A9B07D3
:1013E80006D50268536824490B40016B0B435360D0
:1013F800836A5B0706D50268536820490B40416B36
:101408000B435360836ADB0606D5026893681C4960
:101418000B40C16B0B439360836A9B0606D5026839
:10142800936818490B40016C0B439360836A5B0611
:101438000BD50268536814490B40416C0B43536049
:10144800426C80235B039A420AD0836A1B0606D546
:10145800026853680D490B40C16C0B4353607047D9
:10146800026853680A490B40816C0B435360ECE7F0
:10147800FF7FFFFFFFFFFDFFFFFFFEFFFFFFFBFFFB
:10148800FFEFFFFFFFDFFFFFFFFFEFFFFFFFF7FFAC
:10149800FFFF9FFFF8B5CE46474680B506000D0012
:1014A80017009946089B98463368DC692C40641BF2
:1014B80063425C41BC4233D143460133F4D0FFF769
:1014C8009DF84B46C01A40452FD84346002B2ED0D6
:1014D800326813685B07E7D5802DE5D0402DE3D04F
:1014E800D3691B0710D4D3691B05DDD580231B01E5
:1014F80013623000FFF736FE90232022F2500C3B97
:101508000022F25403200CE0082414623000FFF794
:1015180029FE9023F4500C3B0022F254012000E0F5
:101528000020C0BCB946B046F8BD0320F9E7032047
:10153800F7E7000030B583B0040090230022C250C2
:10154800FFF75CF8050023681B681B0710D42368A5
:101558001B685B072BD420238822A3500432A35096
:101568000023E3662367083AA354002003B030BD84
:101578008021234B00930300002289032000FFF7FA
:1015880089FF0028E3D0EFF31081012383F310884B
:101598002268136880208343136081F310888823AE
:1015A8002022E250043B0022E2547D38DEE780210D
:1015B800134B00932B000022C9032000FFF76AFF9A
:1015C8000028C8D0EFF31080012282F31088216828
:1015D8000B680C4D2B400B6080F31088EFF31080E4
:1015E80082F3108821688B6893438B6080F310889E
:1015F8008C231F32E250083B0022E2540320B5E757
:10160800FFFFFF01DFFEFFFF10B5041E30D0882367
:10161800C358002B22D088232422E2502268136862
:1016280001218B431360A36A002B1DD12000FFF713
:10163800CBFD012811D0226853680E490B40536036
:10164800226893682A218B4393602268136829399A
:101658000B4313602000FFF76DFF10BD8433002299
:10166800C254FEF733FFD6E72000FFF7A3FEDDE7FD
:101678000120F2E7FFB7FFFFF8B50400436E002B27
:1016880005D101336A228352023A8352F8BD0268B7
:1016980095686D0E07231D409268520F1340084F3E
:1016A800F85CC000074EF15CFEF7C0FD6A23E0520B
:1016B800785DC000715DFEF7B9FD6823E052E5E78B
:1016C800981800089018000870B58423C35C012B93
:1016D80015D0842401260655882524234351026801
:1016E80013681168B1431160064A1340002242662C
:1016F80001680B60202343510255002070BD022071
:10170800FCE7C046FFFFFFDFF8B504000A008423AA
:10171800C35C012B1BD08425012060558826242317
:10172800A35123681F68196881431960206883687A
:10173800DB00D908114381602000FFF79DFF236873
:101748001F602023A351002363550020F8BD022009
:10175800FCE70000F8B504000B008422825C012A33
:101768001BD084250120605588262422A251226896
:101778001768116881431160226891680848014020
:10178800194391602000FFF777FF23681F6020232B
:10179800A351002363550020F8BD0220FCE7C04692
:1017A800FFFFFFF10D488546FEF7DAFE0C480D49AC
:1017B8000D4A002302E0D458C4500433C4188C42A4
:1017C800F9D30A4A0A4C002301E013600432A2420A
:1017D800FBD3FEF7C1FCFEF74DFEFEE700900020AC
:1017E800000000200C000020A81800080C000020B1
:1017F800C0000020FEE70000F8B5C046F8BC08BCF1
:101808009E467047F8B5C046F8BC08BC9E4670476F
:1018180000000000000000000000000000000000C0
:1018280001000000020000000300000004000000A6
:1018380000000000000000000000000000000000A0
:101848000000000000000000000000000000000090
:101858000100000002000000030000000400000076
:101868000600000007000000080000000900000052
:10187800010002000400060008000A000C00100025
:101888002000400080000001080402040801010152
:0818980001010103070100003A
:0418A0000903000830
:0418A400E102000855
:0C18A8000024F400010000000400000017
:04000005080017AD2B
:00000001FF
