:020000040800F2
:10000000009000203D2F0008310900083309000846
:1000100000000000000000000000000000000000E0
:10002000000000000000000000000000792000082F
:100030000000000000000000E12000082521000869
:100040008D2F0008000000008D2F00088D2F000864
:100050008D2F00088D2F00088D2F00088D2F000890
:10006000000000008D2F00088D2F00088D2F000844
:100070008D2F0008350900088D2F000800000000B2
:100080008D2F00088D2F00088D2F00088D2F000860
:100090008D2F00088D2F00088D2F00088D2F000850
:1000A0008D2F00088D2F00088D2F00088D2F000840
:0800B0008D2F00088D2F0008C0
:1000C000F0B50500830749D0541E002A45D003002F
:1000D0000326CAB202E00135013C3ED301332A7047
:1000E0003342F8D1032C30D9FF220A401502AD1853
:1000F0002A04AD180F2C34D92700103F3F093E01C8
:10010000B4461E001A0010366644156055609560AE
:10011000D56010329642F8D101373F01DB190F2725
:100120000C22274022403C00002A0ED03E1FB60879
:10013000B400A4461A001C1D644420C2A242FCD193
:1001400003240136B6009B193C40002C05D0C9B2EF
:100150001C19197001339C42FBD1F0BD030014003F
:10016000C0E72700E2E7C046374B70B51B680500C3
:10017000834260D0C269002A5ED0D168002913D0C2
:1001800000268C59002C08D021002468280000F09B
:10019000DDF8002CF8D1EB69D9680436802EF0D157
:1001A000280000F0D3F8EA691168002903D028007C
:1001B00000F0CCF8EA699468002C41D02100246852
:1001C000280000F0C3F8002CF8D16969002902D09A
:1001D000280000F0BBF8EA69002A03D011002800CB
:1001E00000F0B4F8296B002902D0280000F0AEF826
:1001F000696B002902D0280000F0A8F8A96B00293B
:1002000002D0280000F0A2F8A96C002902D0280032
:1002100000F09CF8696C002902D0280000F096F8E4
:10022000E96A002902D0280000F090F82B6A002B20
:1002300001D02800984770BD41690029C8D1D1E795
:1002400069690029C4D1C9E70000002070B50D4BD1
:100250000D4D5E1BB610AB4205D0002408CD013415
:100260009847A642FAD802F093FE084B084D5E1B51
:10027000B610AB4205D0002408CD01349847A64201
:10028000FAD870BD98300008983000089C300008FB
:10029000983000087047C0467047C0467047C04657
:1002A0007047C0467047C0467047C046012070473F
:1002B000012070477047C0467047C046F0B5050042
:1002C0000F2A33D90324030026000B431E401C428F
:1002D00037D11500103D2D0903000C00AC462F014D
:1002E0003F1865685D60A5689D60E568DD6025680C
:1002F00010341D601D001033BD42F2D165460F233E
:100300000C2401352D0149191340451914421AD006
:100310008C59AC5104369C1B032CF9D8043B9B0828
:1003200001339B00ED18C91803231A40561E002AFA
:1003300006D00023CC5C1A00EC5401339642F9D16C
:10034000F0BD561EF5E71A00F0E7C04670B505008F
:10035000002915D00C1F2368002B23DB280000F098
:1003600051F8274A1368002B05D0A3420BD9216806
:10037000601883422CD028006360146000F04AF8B3
:1003800070BDA34210D81A005B68002BF9D1106829
:1003900011188C4218D02CD363605460280000F0F0
:1003A00039F8EDE7E418D9E711685018A04214D0E5
:1003B0001FD8216860188342EED118685B68411825
:1003C000216063605460E9E723681B181360E5E768
:1003D00018685B6841182160CDE72068091850183B
:1003E00011608342DAD118685B684118116053606C
:1003F000D4E70C2328002B6000F00CF8C0E7C046BF
:10040000C001002010B50248FFF74EFF10BDC046E6
:10041000AC01002010B50248FFF74EFF10BDC046EA
:10042000AC010020002934D00123002210B48842FE
:100430002CD301242407A14204D2814202D2090113
:100440001B01F8E7E400A14204D2814202D2490034
:100450005B00F8E7884201D3401A1A434C08A042D7
:1004600002D3001B5C0822438C08A04202D3001B6D
:100470009C082243CC08A04202D3001BDC08224384
:10048000002803D01B0901D00909E3E7100010BCC4
:10049000704701B5002000F05FF802BD0029F8D0D8
:1004A00003B5FFF7C1FF0EBC4243891A1847C04687
:1004B000002941D010B404004C40A446012300227E
:1004C000002900D54942002800D5404288422CD35B
:1004D00001242407A14204D2814202D209011B0156
:1004E000F8E7E400A14204D2814202D249005B0055
:1004F000F8E7884201D3401A1A434C08A04202D3BD
:10050000001B5C0822438C08A04202D3001B9C08FD
:100510002243CC08A04202D3001BDC08224300285F
:1005200003D01B0901D00909E3E710006446002C41
:1005300000D5404210BC704701B5002000F00CF817
:1005400002BDC0460029F7D003B5FFF7B3FF0EBCCC
:100550004243891A1847C0467047C04610B5064C3A
:100560002378002B07D1054B002B02D0044800E074
:1005700000BF0123237010BDC40100200000000053
:10058000902F0008044B10B5002B03D003490448FA
:1005900000E000BF10BDC04600000000C801002000
:1005A000902F000870B588B01422002103A8FFF72F
:1005B00087FD164B596B042211435963596B0A404E
:1005C0000092009A5A6B20252A435A635A6B2A409C
:1005D0000192019A5A6B012422435A635B6B2340B8
:1005E0000293029BA026F60500222021300000F095
:1005F000D7FA03950494002305930233069303A9C5
:10060000300000F013FA08B070BDC0460010024080
:1006100030B587B00B4B186800236422052101F028
:10062000AEFF0128F6D001A9074B0A0031CB31C239
:1006300011CB11C2012305485B42142201F0A9FA33
:10064000E8E7C046E0010020D82F0008EC010020B8
:1006500010B5012001F079FCFBE7000010B502683D
:10066000034B9A4200D010BD00F082F9FBE7C04670
:10067000002C014072B6FEE710B51748174B036017
:10068000E1235B02436000238360C36003610C22AB
:1006900042618361C36103624362836201F062FB72
:1006A000002811D10C48002101F0DCFB00280DD1FD
:1006B0000948002101F0FCFB002809D1064801F09F
:1006C000B1FB002806D110BDFFF7D4FFFFF7D2FF22
:1006D000FFF7D0FFFFF7CEFFEC0100200044004001
:1006E00000B593B03422002105A8FFF7E9FC1022E1
:1006F000002101A8FFF7E4FC8020800000F056FAFA
:100700000223059380225200089200220992402180
:100710000A910C930D930E9206330F9380239B0244
:10072000109380239B05119305A800F069FA002817
:100730000ED107230193053B0293002303930493F7
:10074000022101A800F00AFD002803D113B000BD6A
:10075000FFF790FFFFF78EFF70B58CB000F0F4F854
:10076000FFF7BEFFFFF71EFFFFF786FF0AA8124C38
:100770000300250006CD06C3002101F0EEFB0F4B60
:10078000186005A8030046CD46C306CD06C3002168
:1007900001F0C1FB0A4B1860684623001C330200BD
:1007A00032CB32C212CB12C2002101F0B4FB054B96
:1007B000186001F0ABFBFEE7A82F0008E001002065
:1007C000E8010020E401002000B583B00E4B196C55
:1007D000012211431964196C0A400092009ADA6BE5
:1007E000802149050A43DA63DB6B0B400193019BCF
:1007F000022000220321404200F008F9C020C0007E
:1008000000F0C8F803B000BD0010024010B58EB073
:1008100004001422002109A8FFF752FC1C22002129
:1008200002A8FFF74DFC2268174B9A4201D00EB088
:1008300010BD0223029302A800F08AFD00281FD1F8
:10084000124BDA6B802189020A43DA63DA6B0A40C1
:100850000092009A596B0122114359635B6B13405C
:100860000193019B0C2309930A3B0A930B920023EB
:100870000C930D92A02009A9C00500F0D7F8D6E787
:10088000FFF7F8FEDCE7C0460044004000100240DD
:1008900030B587B00500204B1A6C802109010A434E
:1008A0001A641B6C0B400093009B01A902A800F086
:1008B00035FD059B002B17D100F01CFD1749FFF7F4
:1008C000B1FD421E164B174918001960164BC36044
:1008D0004260002303618360836100F03FFF041ED8
:1008E00006D0200007B030BD00F004FD4000E5E771
:1008F0000B4800F0F7FD041EF3D10D2000F08AF83C
:10090000032D01D90124ECE7002229000D2000F07D
:100910007DF8064B1D60E4E70010024040420F00E6
:1009200080020020002C0140E70300005800002056
:10093000FEE7FEE710B5024800F010FE10BDC0460D
:10094000800200207047000010B5084A116880231B
:100950005B000B4313600320FFF79AFF041E02D0D5
:100960000124200010BDFFF72FFFFAE7002002400E
:10097000034B1B78034A11685B1813607047C0462D
:1009800054000020CC020020014B18687047C0467C
:10099000CC020020034A136803490B400343136051
:1009A0007047C04600000140FFF9FFFF70B5002806
:1009B00011DB8308134DC0339B005C5903221040A8
:1009C000C000FC3216008640B44389010A408240D0
:1009D00022435A5170BD0F230340083B9B08063346
:1009E0009B00094A944663445C6803221040C0009F
:1009F000FC3215008540AC4389010A408240224305
:100A00005A60E7E700E100E000ED00E010B5FFF715
:100A1000CDFF10BD002805DB1F22024001239340BB
:100A2000014A13607047C04600E100E0F0B50023C2
:100A300059E086685F000324BC40A643CC68BC40F4
:100A400034438460446894434E683609012232403E
:100A50009A402243426056E0DE080836B600375816
:100A600005321A4092000F249440A7430C69944029
:100A700022003A43325059E0032600E00026A64007
:100A800034003C43424E1832920094513768EA4396
:100A90003E00AE434C68E40201D53E002E433C4C80
:100AA000266067683E0016404C68A40201D53E00EF
:100AB0002E43374C66608426A7593E0016404C688A
:100AC000A40301D53E002E43314C8427E6518026F5
:100AD000A65932404C68E40301D52A0032432C4D1C
:100AE00080242A5101330C682200DA404ED00122C2
:100AF0009A40250015401442F4D04E680324344037
:100B0000013C012C95D94C6803222240032A08D0CD
:100B1000C4685E000322B24094438A68B240224314
:100B2000C2604C6803222240022A95D004685E000D
:100B300003221700B740BC434F683A40B2402243FB
:100B400002604C68C02292021442CBD09A08140072
:100B50001834A4000E4EA75903241C40E4000F26AD
:100B6000A640B743A026F605B04287D0094EB04252
:100B700008D0094EB04207D0084EB04200D17BE702
:100B800005267CE701267AE7022678E7F0BDC04615
:100B9000001802400004005000080050000C0050F3
:100BA000002A01D0816170478162FCE710B5104ACC
:100BB000136810490B400343136080239B00984245
:100BC00001D0002010BD0C4B1B685800C01840001D
:100BD0000A49FFF727FC0130054B5B695B0503D52C
:100BE000002803D00138F7E70020EBE70320E9E70E
:100BF00000700040FFF9FFFF5000002040420F004E
:100C000070B582B0041E00D129E20368DB0739D534
:100C1000C14A916838230B40D16803220A40102B47
:100C200026D0082B26D063688022520293427FD0C0
:100C3000A022D202934200D181E0B74B1A68B74993
:100C40000A401A601A68B6490A401A606368002BA5
:100C500000D180E0FFF798FE0500AF4B1B689B03B7
:100C600010D4FFF791FE401B6428F6D90320F7E16A
:100C7000032AD6D1A84B1B689B0303D56368002BBE
:100C800000D1EFE123689B0731D5A34A916838234F
:100C90000B40D16803220A40102B6AD0002B6BD185
:100CA0009D4A1268520503D5E268002A00D1DBE1B3
:100CB000994842689B490A40616909020A434260B7
:100CC000002B0DD1036898490B4021690B43036049
:100CD0000368DB0A07221A40944BD340944A1360FE
:100CE000944B1868FFF7D4FD002800D0BEE12368BC
:100CF0001B0700D481E0884B9A6838231340182BD7
:100D000073D0A369002B00D1B4E0834A136E012194
:100D10000B431366FFF738FE05007F4B1B6E9B07E6
:100D20006BD4FFF731FE401B0228F6D9032097E170
:100D3000794A116880235B020B43136086E7764B88
:100D400019688022D2020A431A601968802252026E
:100D50000A431A607AE7FFF717FE05006E4B1B681F
:100D60009B038FD5FFF710FE401B6428F6D90320A4
:100D700076E1022A92D193E7E368002B22D0664AFB
:100D8000136869490B4021690B4313601168802384
:100D90005B000B431360FFF7F7FD05005E4B1B681C
:100DA0005B0506D4FFF7F0FD401B0228F6D90320AF
:100DB00056E159494B685B4A13406269120213437A
:100DC0004B6094E7544A13685B490B401360FFF78C
:100DD000DBFD0500504B1B685B0588D5FFF7D4FD94
:100DE000401B0228F6D903203AE14B4B1B6E9B07B0
:100DF00003D5A369002B00D13AE123685B0700D437
:100E0000A2E0454B9A6838231340202B45D0424B33
:100E1000DB6BDB004AD4404BDA6B802149050A4387
:100E2000DA63DB6B0B400193019B0125434B1B688D
:100E3000DB053DD5A368012B4ED0052B52D0364B98
:100E4000DA6D01218A43DA65DA6D03318A43DA65A6
:100E5000A368002B50D0FFF797FD06002E4BDB6DEB
:100E60009B076FD4FFF790FD801B354B9842F5D957
:100E70000320F5E0284A136E01218B431366FFF728
:100E800083FD0500244B1B6E9B07B6D5FFF77CFD49
:100E9000401B0228F6D90320E2E01F4BDB6D9B07C5
:100EA00052D5A368002B4FD10120D9E00025BDE722
:100EB000224A116880235B000B431360FFF764FD37
:100EC00006001E4B1B68DB05B4D4FFF75DFD801BDD
:100ED0000228F6D90320C3E00F4AD36D01210B434A
:100EE000D365B5E70C4BDA6D04210A43DA65DA6D98
:100EF00003390A43DA65ABE7FFF746FD0600064B08
:100F0000DB6D9B071ED5FFF73FFD801B0C4B984206
:100F1000F5D90320A4E0C04600100240FFFFFEFF09
:100F2000FFFFFBFFFF80FFFFFFC7FFFF0024F40070
:100F30005000002058000020FFFEFFFF007000401E
:100F400088130000012D1ED0E369002B00D191E031
:100F50004F4A916838220A40102A5ED0022B18D0DE
:100F60004B4A13684B490B401360FFF70DFD04001B
:100F7000474B1B689B0149D5FFF706FD001B022864
:100F8000F6D903206CE0424AD36B43490B40D3634C
:100F9000DAE73F4A13683F490B401360FFF7F4FC60
:100FA00005003B4B1B689B0106D5FFF7EDFC401B82
:100FB0000228F6D9032053E0354AD368374919404F
:100FC000236A606A0343A06A00020343E06A0343A2
:100FD000206B03430B43D360116880235B040B43F6
:100FE0001360D16880235B050B43D360FFF7CCFC13
:100FF0000400274B1B689B0106D4FFF7C5FC001BB0
:101000000228F6D903202BE0002029E0204AD368EB
:1010100023490B40D360002022E0012B2CD01C4B35
:10102000DA6803231340216A8B4227D170231340CF
:10103000616A8B4224D1FE21C9011140A36A1B02BF
:1010400099421FD1F8239B031340E16A8B421BD1C5
:10105000520F5207236B9A4218D1002000E0012062
:1010600002B070BD0120FBE70120F9E70120F7E79E
:101070000120F5E70020F3E70120F1E70120EFE789
:101080000120EDE70120EBE70120E9E70120E7E798
:1010900000100240FFFFFFFEFFFFFFEF8C80C11F2B
:1010A000FCFFFEEF10B52A4B9B6838221A4207D18D
:1010B000274B1A68D20A072313402648D84010BD90
:1010C000234B9A6838231340082B3BD0204B9A6857
:1010D00038231340102B0DD01D4B9A683823134032
:1010E000202B31D01A4B9A6838231340182B26D066
:1010F0000020E4E7164AD1680D3B0B40D268120984
:10110000072111400131032B0FD01248FFF78AF954
:101110000F4BDA68120A7F23134058430C4BD968EF
:10112000490F0131FFF77EF9C9E70B48FFF77AF95C
:10113000074BDA68120A7F2313405843EEE7FA2080
:10114000C001BCE70448BAE780200002B7E7C04608
:10115000001002400024F40000127A0070B5040070
:101160000D00002800D1AAE0574B1A68072313404E
:101170008B4221D323689A070ED55B0705D5534AC6
:101180009168E023DB010B439360504A9368504918
:101190000B40A1680B4393602368DB0754D5636859
:1011A000012B20D0022B3BD0002B3FD1474A1268A5
:1011B00052051CD401206AE0434A136807218B437F
:1011C0002B431360FFF7E0FB06003F4B1A68072331
:1011D0001340AB42CED0FFF7D7FB801B3D4A904275
:1011E000F3D9032053E0394A1268920369D537498D
:1011F0008A680720824313438B60FFF7C5FB060014
:10120000324B9B6838221A406368DB009A421BD03D
:10121000FFF7BAFB801B2F4B9842F1D9032036E031
:101220002A4A12689201E2D4012030E0032B05D053
:10123000264AD26D9207DAD4012028E0234A126EA2
:101240009207D4D4012022E01F4B1A6807231340D1
:10125000AB421DD823685B0706D51C4A93681E491C
:101260000B40E1680B439360FFF71CFF174B9A6834
:10127000120A0F231340194A9B009A581F23134048
:10128000D840174B1860174B1868FFF701FB70BD6B
:101290000D4A136807218B432B431360FFF774FB40
:1012A0000600094B1A6807231340AB42D2D0FFF760
:1012B0006BFB801B074B9842F3D90320E7E7012023
:1012C000E5E70120E3E7C0460020024000100240AD
:1012D000FFF0FFFF88130000FF8FFFFF3030000892
:1012E0005000002058000020014B18687047C0468D
:1012F0005000002010B5FFF7F7FF064B9A68120B5D
:1013000007231340044A9B009A581F231340D840D8
:1013100010BDC046001002401030000830B5072351
:101320000360094A94681C4044609468F0252D01CC
:101330002C4084609268E024E4012240C260034AA9
:10134000126813400B6030BD0010024000200240C4
:10135000F0B583B0040003689B0362D5584BDB6B88
:10136000DB001ED4564BDA6B802149050A43DA6351
:10137000DB6B0B400193019B0126524A11688023CD
:101380005B000B431360FFF7FFFA05004D4B1B6832
:10139000DB0508D4FFF7F8FA401B0228F6D903252D
:1013A00002E00026E9E70025002D23D1444BD96D4A
:1013B000C02292000B001340114210D0A2699A4241
:1013C0000DD03F4AD36D40490B40D06D802149027A
:1013D0000143D165D16D3D480140D165D365DB073F
:1013E00010D4002D06D1364AD36D37490B40A16980
:1013F0000B43D365012E15D1314AD36B34490B40D1
:10140000D3630FE0FFF7C0FA07002D4BDB6D9B079E
:10141000E7D4FFF7B9FAC01B2E4B9842F5D9032544
:10142000DFE700252368DB0706D5254A536D032136
:101430008B4361680B43536523689B0706D5204A9D
:10144000536D0C218B43A1680B43536523689B06A6
:1014500006D51B4A536D20490B40E1680B43536589
:1014600023685B040BD5164A536D9B009B0861698A
:101470000B43536562698023DB059A4211D02368D0
:101480001B050BD50E4A536D14490B4021690B43C4
:10149000536522698023DB019A4209D0280003B0FA
:1014A000F0BD074AD16880235B020B43D360E6E7B7
:1014B000034AD16880235B020B43D360EEE7C0464A
:1014C0000010024000700040FFFCFFFFFFFFFEFF26
:1014D000FFFFFFEF88130000FFCFFFFFFF3FFFFF7D
:1014E000704700003D23C35C012B25D13C33022211
:1014F000C2540268D36801210B43D3600368114AC8
:1015000093420BD0104A934208D0104A934205D020
:101510001A6801210A431A6000200EE09A680C49FB
:101520000A40062A0AD007398A4209D01A680121DE
:101530000A431A60002000E0012070470020FCE709
:101540000020FAE7002C0140000400400040014068
:1015500007000100704770477047704770B505007D
:101560000368DE681C69A2070ED5B2070CD50322FA
:1015700052421A610123037703689B699B0757D086
:10158000FFF7E9FF00232B77630712D5730710D508
:101590002B68052252421A6102232B772B689A6925
:1015A000C0239B001A4249D02800FFF7D4FF002334
:1015B0002B77230710D533070ED52B68092252420B
:1015C0001A6104232B772B68DB699B073DD0280029
:1015D000FFF7C1FF00232B77E30612D5F30610D5E2
:1015E0002B68112252421A6108232B772B68DA6983
:1015F000C0239B001A422FD02800FFF7ACFF002326
:101600002B77E30701D5F3072DD482239B011C42DE
:1016100001D033062FD4E30501D5330632D4630657
:1016200001D5730635D4A40601D5B60639D470BDEC
:10163000FFF790FF2800FFF78FFFA3E72800FFF7D1
:1016400089FF2800FFF788FFB1E72800FFF782FF36
:101650002800FFF781FFBDE72800FFF77BFF280088
:10166000FFF77AFFCBE72B68022252421A6128006B
:10167000FEF7F4FFC9E72B680E4A1A61280000F054
:101680009EF8C8E72B680C4A1A61280000F098F809
:10169000C5E72B68412252421A612800FFF75DFF1F
:1016A000C1E72B68212252421A61280000F086F817
:1016B000BDE7C0467FDFFFFFFFFEFFFF0368204A54
:1016C000904202D01F4A904203D1702293434A684D
:1016D00013431B4A90420ED01A4A90420BD01A4A2A
:1016E000904208D0194A904205D0194A904202D03F
:1016F000184A904203D1184A1A40CB6813438022FB
:1017000093434A69134303608B68C3620B68836227
:101710000B4B984208D00D4B984205D00C4B984289
:1017200002D00C4B984201D10B6903630123436142
:101730000269134203D00369012293430361704796
:10174000002C014000040040002000400040014007
:101750000044014000480140FFFCFFFF70B5041E3B
:101760002AD03D23C35C002B20D03D2502236355A6
:10177000210001C9FFF7A2FF01234822A3540A3A1E
:10178000A3540132A3540132A3540132A3540132B1
:10179000A3540132A3540132A3540132A3540132A1
:1017A000A3540132A3546355002070BD3C33002282
:1017B000C254FFF795FED8E70120F6E7704770475F
:1017C0007047000030B5EFF31084012282F31088D7
:1017D00001680B68124D2B400B6084F31088EFF307
:1017E000108182F31088026893680E4C2340936046
:1017F00081F31088C36E012B06D08C232022C250A7
:101800000023C366436730BDEFF3108183F3108874
:10181000026813681024A343136081F31088ECE777
:10182000DFFEFFFFFEFFFFEF10B5040083680269D3
:10183000134342691343C269134301680A686A4843
:10184000024013430B602268536868490B40E1680B
:101850000B435360A369226A1A4321688B6864486A
:10186000034013438B602268D36A0F218B43616A64
:101870000B43D36223685F4A93420AD05E4A934285
:101880003DD05E4A93425BD05D4A934248D01023DC
:101890000BE05C4B5A6D03231340022B42D02AD835
:1018A000002B41D0012B41D10333E0698022120289
:1018B000904247D0042B00D18FE078D8002B00D184
:1018C00084E0022B71D15048626A504B5200D15AC9
:1018D000FEF7A8FD61684B08C018FEF7A3FD0200E3
:1018E000103A4B4B9A4200D97CE023680004000C6C
:1018F000D860002061E0032B1AD10533D5E7414BB6
:101900005A6D0C231340082B14D005D8002B13D08C
:10191000042BCAD01023C8E70C2B0FD1043BC4E71B
:101920000023C2E70223C0E70023BEE71023BCE781
:101930001023BAE70223B8E70023B6E71023B4E781
:101940000023B2E7042B2DD022D8002B24D0022B69
:101950001CD12D48626A2D4B5200D15AFEF762FD10
:10196000400061684B08C018FEF75CFD0200103AA9
:10197000274B9A4234D882B20F239A434008083B3F
:10198000034013432268D360002016E0012014E0D6
:10199000082BDFD0012010E0FFF7ACFC0028D9D1E4
:1019A00000200AE0FFF77EFBF8E7012005E0082BA6
:1019B00002D18020000287E7012001236A22A3527E
:1019C000023AA35200236367A36710BDFFF792FC9E
:1019D000002800D078E70020EFE7FFF763FBF7E788
:1019E0000120EAE70120E8E7F369FFCFFFCFFFFF1F
:1019F000FFF4FF110038014000440040004800405F
:101A0000004C0040001002400024F4007030000838
:101A1000EFFF0000836A1B0706D5026853682C4954
:101A20000B40816B0B435360836ADB0706D502686A
:101A3000536828490B40C16A0B435360836A9B0774
:101A400006D50268536824490B40016B0B43536071
:101A5000836A5B0706D50268536820490B40416BD7
:101A60000B435360836ADB0606D5026893681C4902
:101A70000B40C16B0B439360836A9B0606D50268DB
:101A8000936818490B40016C0B439360836A5B06B3
:101A90000BD50268536814490B40416C0B435360EB
:101AA000426C80235B039A420AD0836A1B0606D5E8
:101AB000026853680D490B40C16C0B43536070477B
:101AC000026853680A490B40816C0B435360ECE792
:101AD000FF7FFFFFFFFFFDFFFFFFFEFFFFFFFBFF9D
:101AE000FFEFFFFFFFDFFFFFFFFFEFFFFFFFF7FF4E
:101AF000FFFF9FFFF8B5CE46474680B506000D00B4
:101B000017009946089B98463368DC692C40641B93
:101B100063425C41BC4233D143460133F4D0FEF70B
:101B200033FF4B46C01A40452FD84346002B2ED0DA
:101B3000326813685B07E7D5802DE5D0402DE3D0F0
:101B4000D3691B0710D4D3691B05DDD580231B0186
:101B500013623000FFF736FE90232022F2500C3B38
:101B60000022F25403200CE0082414623000FFF736
:101B700029FE9023F4500C3B0022F254012000E097
:101B80000020C0BCB946B046F8BD0320F9E70320E9
:101B9000F7E7F0B5C64600B582B004000D009046E8
:101BA0001E008823C358202B66D1002969D0002A43
:101BB00069D0826880235B019A4204D10369002BBB
:101BC00001D1CB0761D490230022E250083B21329F
:101BD000E250FEF7D9FE070054234246E252023398
:101BE000E252A26880235B019A4202D00023984609
:101BF00018E02369002B2AD00023984612E088239E
:101C00002022E250032038E043461B882268DB058F
:101C1000DB0D936202239C46E0445623E25A013ACC
:101C200092B2E2525623E35A9BB2002B12D0009696
:101C30003B00002280212000FFF75CFF0028DED15E
:101C4000002DE1D02A7823689A620135E5E7A8469D
:101C50000025E7E700963B00002240212000FFF727
:101C600049FF002803D188232022E25005E0882381
:101C70002022E250032000E0022002B080BCB846DF
:101C8000F0BD0120F9E70120F7E70120F5E70000AA
:101C900030B583B0040090230022C250FEF774FEDA
:101CA000050023681B681B0710D423681B685B07AB
:101CB0002BD420238822A3500432A3500023E366B0
:101CC0002367083AA354002003B030BD8021234B82
:101CD00000930300002289032000FFF70BFF002878
:101CE000E3D0EFF31081012383F310882268136897
:101CF00080208343136081F3108888232022E250E0
:101D0000043B0022E2547D38DEE78021134B009330
:101D10002B000022C9032000FFF7ECFE0028C8D0EA
:101D2000EFF31080012282F3108821680B680C4DBC
:101D30002B400B6080F31088EFF3108082F3108843
:101D400021688B6893438B6080F310888C231F324B
:101D5000E250083B0022E2540320B5E7FFFFFF01F9
:101D6000DFFEFFFF10B5041E30D08823C358002BC0
:101D700022D088232422E2502268136801218B4359
:101D80001360A36A002B1DD12000FFF74DFD012831
:101D900011D0226853680E490B4053602268936843
:101DA0002A218B4393602268136829390B431360FF
:101DB0002000FFF76DFF10BD84330022C254FEF7F0
:101DC00025FDD6E72000FFF725FEDDE70120F2E73D
:101DD000FFB7FFFFF8B50400436E002B05D10133B8
:101DE0006A228352023A8352F8BD026895686D0EEA
:101DF00007231D409268520F1340084FF85CC00043
:101E0000074EF15CFEF754FB6A23E052785DC00098
:101E1000715DFEF74DFB6823E052E5E79030000866
:101E20008830000870B58423C35C012B15D084244E
:101E3000012606558825242343510268136811683A
:101E4000B1431160064A13400022426601680B60EC
:101E5000202343510255002070BD0220FCE7C046FC
:101E6000FFFFFFDFF8B504000A008423C35C012BE9
:101E70001BD084250120605588262423A351236884
:101E80001F6819688143196020688368DB00D908DE
:101E9000114381602000FFF79DFF23681F6020230E
:101EA000A351002363550020F8BD0220FCE7000089
:101EB000F8B504000B008422825C012A1BD0842523
:101EC0000120605588262422A251226817681168D3
:101ED000814311602268916808480140194391606C
:101EE0002000FFF777FF23681F602023A351002302
:101EF00063550020F8BD0220FCE7C046FFFFFFF15C
:101F0000842801D0033070470020FCE710B500F0B2
:101F10008BFD002010BDF0B585B004000D004668B3
:101F200007680823C05EFFF7EBFF228A03AB01932B
:101F300000902B003900300000F048FD012802D14C
:101F4000039805B0F0BD0020FBE710B5002800D1D4
:101F5000013000F0A5FE002010BD10B503000068A0
:101F60005968002200F0F0FA10BD03000833436006
:101F7000012252428260C360036100230360704704
:101F800000230361704743684B609A688A60516020
:101F900099600861036801330360704730B50D68CC
:101FA0006B1C10D0030008331C005B681A68AA423F
:101FB000FAD963684B6099608C606160086103685E
:101FC0000133036030BD0469F3E703694168826847
:101FD0008A60416851605A68824206D000220261DC
:101FE0001A68013A1A601868704782685A60F5E703
:101FF00082B000230193064B1B68013301D072B6F7
:10200000FEE772B6019B002BFCD002B07047C046C1
:102010005C00002000000000000000000000000044
:102020000B4A13681868203080F30988022080F377
:102030001488BFF36F8F3FBCAE4608BC04BC62B6C9
:102040001847C046C046C046C046C046C046C04607
:102050001810002010B5031F802464041C60043B8A
:102060001960044B01000C390B600300203B1A601F
:10207000403810BDF11F000870470000044B80225B
:1020800052051A60BFF34F8FBFF36F8F7047C04682
:1020900004ED00E072B6044A136801331360BFF325
:1020A0004F8FBFF36F8F70475C000020064B1B689B
:1020B000002B01D172B6FEE7013B034A1360002BEF
:1020C00000D162B67047C0465C000020EFF310807C
:1020D00072B6704780F3108870470000000000005F
:1020E000EFF309800E4B1A6820381060F0C04446A8
:1020F0004D4656465F46F0C008B572B600F0E8FDA2
:1021000062B60CBC116808681030F0C8A046A94639
:10211000B246BB4680F309882038F0C81847C0464D
:102120001810002010B5FFF7D1FF040000F0BAFC32
:10213000002803D0034B802252051A602000FFF7CD
:10214000C9FF10BD04ED00E010B5084C002323606A
:10215000074A1360074B1868FA218900FEF762F9F5
:102160000138054B18600723236010BD10E000E024
:1021700018E000E05000002014E000E010B50C4B27
:102180001968FF2212040A431A601968FF22120616
:102190000A431A60FFF7D8FF064B00221A60FFF7C8
:1021A0003FFF00F095FDFFF723FF002010BDC04664
:1021B00020ED00E05C000020124A53071FD0D11D23
:1021C00007239943C0231B015B1A9B180A000E4882
:1021D000026000214160D318083B072083430B486D
:1021E000036059601960991A51601360084B1960B7
:1021F000084B1960084B802212061A607047C023F2
:102200001B01E4E7F0020020E8020020E4020020C5
:10221000DC020020E0020020D002002010B5124BAA
:102220001A001B688342FBD351685418844208D0BB
:1022300041684418A34209D00360904200D0106066
:1022400010BD4068091851601000F1E7074C246880
:10225000A34206D05B68C918416013681B6803601D
:10226000EBE70460E9E7C046E8020020E402002052
:1022700070B5040000F00EFC304B1B68002B15D02D
:102280002F4B1B68234247D1002C47D02200083235
:10229000640702D007239A430832002A45D0294B0D
:1022A0001B68934243D328490C6804E0FFF784FF7E
:1022B000E6E721001C006368934202D22368002BEA
:1022C000F7D11E4B1B68A34233D00D680835236835
:1022D0000B6063689B1A102B08D9A018410701D026
:1022E00072B6FEE743606260FFF798FF62681549C7
:1022F0000B689B1A0B60154909688B4201D2134980
:102300000B600F4B1B681343636000232360104A6C
:1023100013680133136002E0002500E0002500F09F
:102320004BFC6B0707D072B6FEE70025F7E70025E8
:10233000F5E70025F3E7280070BDC046E402002061
:10234000D0020020E0020020E8020020DC02002091
:10235000D802002070B5002823D00500083D6B6826
:10236000104A12681A4201D172B6FEE7010008391C
:102370000968002901D072B6FEE7083804009343CB
:10238000436000F087FB6168074A13685B181360BD
:102390002800FFF743FF054A13680133136000F07C
:1023A0000BFC70BDD0020020E0020020D40200200F
:1023B00010B50400FFF76EFEA26BE36B9A4204D0E7
:1023C0000024FFF773FE200010BD0124F9E770B56B
:1023D00004001500866B026C002A0CD10368002BE8
:1023E00003D000200136A66370BD806800F06AFD4E
:1023F0000023A360F6E7002D0DD14068FDF75EFFD6
:102400006368226C9B186360A26893421AD32368A6
:1024100063602800E6E7C068FDF750FFE368226CC0
:1024200051429B1AE3602268934202D2A3685B1870
:10243000E360022D01D00020D4E7002E04D0013E3D
:102440000020CFE72800CDE70020CBE770B50500DE
:10245000FFF720FE4523EC5C64B201E0013C64B26E
:10246000002C0BDD6B6A002B08D02800243000F014
:102470008FFC0028F2D000F00DFDEFE74523FF228E
:10248000EA54FFF713FEFFF705FE4423EC5C64B249
:1024900001E0013C64B2002C0BDD2B69002B08D05D
:1024A0002800103000F074FC0028F2D000F0F2FC9C
:1024B000EFE74423FF22EA54FFF7F8FD70BD70B543
:1024C00004000D0000281DD0FFF7E4FD2268E36B37
:1024D000206C010059435118A1600021A163626082
:1024E000013B4343D218E260FF234422A35401324C
:1024F000A354002D11D12369002B05D1FFF7D6FD80
:10250000012070BD72B6FEE72000103000F040FCE4
:102510000028F3D0FFF7B2FDF0E720001030FFF7FE
:1025200024FD20002430FFF720FDE7E710B503006D
:102530000298002906D10060C36301640121FFF7FE
:10254000BEFF10BD0260F7E7F0B583B004000D00D8
:102550001600002801D172B6FEE70800604348303B
:10256000FFF786FE071E07D00200483200903300B6
:1025700029002000FFF7DAFF380003B0F0BDF0B506
:1025800085B004000F0001921D00002808D000292A
:1025900008D0022D0BD1E36B012B08D072B6FEE7F9
:1025A00072B6FEE7036C002BF3D072B6FEE700F0C4
:1025B00077FC061E04D1019B002B32D072B6FEE7D9
:1025C00000262EE02A0039002000FFF700FF636A92
:1025D000002B06D100280DD1FFF768FD012005B0C2
:1025E000F0BD2000243000F0D3FB0028F4D0FFF72A
:1025F00045FDF1E7FFF742FDEEE7FFF757FD00204D
:10260000EDE702A800F006FC013617E00022E254D4
:102610001FE00022E25421E02000FFF717FF00F046
:10262000CBFAFFF737FDA26BE36B9A42CAD3022DB8
:10263000C8D0019B002BE0D0002EE2D0FFF736FD82
:1026400000F028FAFFF726FD4423E25C52B2013283
:10265000DCD04523E25C52B20132DAD0FFF726FD2E
:1026600001A902A800F0E2FB002813D12000FFF727
:102670009FFE0028D0D001992000103000F076FB9A
:102680002000FFF7E3FE00F097FA0028C9D1FFF71A
:10269000F5FCC6E72000FFF7D9FE00F08DFA002018
:1026A0009DE70000084B1B681B68002B04D1074BFB
:1026B000012252421A607047034B1B68DB68DB68DB
:1026C0005A68024B1A60F6E7600F0020F80E0020EF
:1026D000F8B5D6464F4680B581469A46089E0A9C74
:1026E000276B354B9C4662449200BF1807229743E4
:1026F00000295CD000250F2D07D84B5D62193432BC
:102700001370002B01D00135F5E743230022E2547A
:10271000062E00D90626E66266640025A564201D03
:10272000FFF72EFC20001830FFF72AFC2461072356
:102730009B1BA3616462B8235B00E5500433E5543E
:1027400020005030902252000021FDF7B9FC1B4BB5
:1027500063651A006832A265D033E3652300E8336D
:102760000120002118605960F023154AE25202331B
:10277000144AE2520233144AE2520233134AE2523A
:102780000233134AE25202330522E2520233063286
:10279000E252524649463800FFF75CFC2060099B34
:1027A000002B00D01C60C0BCBA46B146F8BD342333
:1027B0000022E254ACE7C046FFFFFF3F6400002068
:1027C0000E330000CDABFFFF341200006DE6FFFFBB
:1027D000ECDEFFFF70B5002407E0A3001B19980092
:1027E0000E4BC018FFF7C1FB0134062CF5D90C4D78
:1027F0002800FFF7BAFB0B4C2000FFF7B6FB0A4896
:10280000FFF7B3FB0948FFF7B0FB0948FFF7ADFB43
:10281000084B1D60084B1C6070BDC0468C0F00202B
:10282000780F0020640F0020480F0020340F002094
:102830001C0F0020600F00205C0F002010B504006A
:10284000FFF728FC1F4A1368013313601E4B1B68F7
:10285000002B0CD01D4B1B68002B0DD11A4B1B6895
:10286000DA6AE36A9A4207D8174B1C6004E0164BF9
:102870001C601368012B1FD0154A136801331360C5
:10288000E26A144B1B689A4201D9124B1A60211D4F
:1028900093009B189B0010481818FFF774FBFFF774
:1028A00005FC0A4B1B68002B05D0074B1B68DA6A36
:1028B000E36A9A4203D310BDFFF78CFFDCE7FFF712
:1028C000DDFBF8E7180F0020181000200C0F002087
:1028D000FC0E0020100F00208C0F002010B504000B
:1028E0005030FDF741FC206BFFF734FD2000FFF76F
:1028F00031FD10BD10B514E0FFF7CCFB0B4BDB68CE
:10290000DC68201DFFF761FB094A1368013B136077
:10291000084A1368013B1360FFF7C8FB2000FFF76C
:10292000DDFF044B1B68002BE6D110BD340F0020E7
:10293000180F0020300F002010B5FFF7DBFF034B0E
:102940001B68012BF9D9FFF799FBF6E78C0F0020E4
:1029500070B504000D00174B1E68174B1868043043
:10296000FFF733FB631C0DD03419134B1B685C60FD
:10297000A64210D9114B18680F4B19680431FFF7A4
:102980000DFB70BD002DEFD00B4B196804310C48C6
:10299000FFF7F9FAF5E70B4B1868074B1968043194
:1029A000FFF7FCFA084B1B68A342EAD9064B1C60F0
:1029B000E7E7C046140F0020181000205C0F00202D
:1029C0001C0F0020600F0020F80E0020F0B587B02B
:1029D0000490059116001F009000FFF749FC041EAB
:1029E0001ED0BC204000FFF743FC051E12D004633C
:1029F0000023039302900D9B01930C9B00933B00DB
:102A0000320005990498FFF763FE2800FFF716FFD0
:102A1000012007E02000FFF79DFC0120404201E07B
:102A20000120404207B0F0BD00B583B01149124803
:102A3000124B0193002300938022FFF7C7FF012868
:102A400003D0013014D003B000BD72B60C4B1B682C
:102A500050330C4A13600C4B012252421A600B4B4C
:102A600002321A600A4B00221A60FFF787FBEAE77E
:102A700072B6FEE70830000839290008F40E00207D
:102A80001810002000000020F80E00200C0F00207D
:102A9000140F0020024A1368013313607047C046C8
:102AA000F00E0020F8B5394B1B68002B66D1384B6F
:102AB0001D6801351D60002D12D1364B1B681B6847
:102AC000002B01D072B6FEE7324A1168324B18680B
:102AD00010601960314A136801331360FFF7E2FD9B
:102AE0002F4B1B68AB423FD900272E4B1B68D96A7E
:102AF0002D4A8B005B1899008B58012B00D90127B8
:102B00002A4B1B68002B3ED001273CE00127214BBC
:102B10001B681B68002B29D01E4B1B68DB68DC6818
:102B200063689D4227D3261D3000FFF74EFAA36A43
:102B3000002B03D020001830FFF747FAE26A1C4B45
:102B40001B689A4201D91A4B1A6093009B1898008F
:102B5000154BC0183100FFF716FAE26A114B1B68DB
:102B6000DB6A9A42D2D2D2E70027D0E70C4B01228F
:102B700052421A60B9E70A4A1360B6E70D4A136871
:102B80000133136000273800F8BDC046F00E002066
:102B9000140F0020600F00205C0F0020000F0020A9
:102BA000F80E0020181000208C0F0020040F0020C9
:102BB000100F0020080F002070B5314B1B68002B50
:102BC00001D172B6FEE7FFF765FA2D4B1A68013A9C
:102BD0001A601B68002B4DD12A4B1B68002B01D1BA
:102BE000002448E00024284B1B68002B23D0264BF0
:102BF000DB68DC6820001830FFF7E7F9251D2800A6
:102C0000FFF7E3F9E36A214A1268934201D91F4AA8
:102C100013609800C01880001D4BC0182900FFF7F2
:102C2000B2F9E26A1B4B1B68DB6A9A42DBD31A4B90
:102C300001221A60D7E7002C01D0FFF733FD174BB4
:102C40001C68002C0AD1144B1C68002C13D0FFF711
:102C500015FA01240FE0013C002C07D0FFF722FFFA
:102C60000028F8D00C4B01221A60F4E70B4B00222D
:102C70001A60E8E70024FFF719FA200070BDC0468B
:102C8000F00E0020180F0020480F0020100F002029
:102C90008C0F002018100020040F0020080F0020C7
:102CA00010B5041E0FD0094B1B68002B01D072B663
:102CB000FEE7FFF7EFFE00212000FFF749FEFFF7D8
:102CC0007BFF002801D1FFF7D9F910BDF00E0020DD
:102CD00010B5204B1B68002B03D01F4B01221A603C
:102CE00010BD1D4B00221A601C4B1B681C499A002A
:102CF000D21890004258002A05D1002B01D0013B88
:102D0000F4E772B6FEE708009900CC18A20082181A
:102D1000546864685460C9188A00083212189442D2
:102D20000FD00F4A9900C918880012185268D1684C
:102D30000C4A116009490B60136850330A4A13604A
:102D4000CEE7646802009900C91888001218546020
:102D5000E7E7C046F00E0020040F0020100F00200F
:102D60008C0F0020181000200000002010B50C006F
:102D7000002809D0054B19681831FFF70FF9012118
:102D80002000FFF7E5FD10BD72B6FEE71810002029
:102D900070B5C368DC68002C26D0250018352800E3
:102DA000FFF713F9154B1B68002B1FD1251D2800B9
:102DB000FFF70BF9E36A124A1268934201D9104AED
:102DC00013609800C01880000E4BC0182900FFF750
:102DD000DAF8E26A0C4B1B68DB6A9A420BD90B4BA0
:102DE00001221A60012070BD72B6FEE70848290072
:102DF000FFF7C9F8EDE70020F5E7C046F00E002028
:102E0000100F00208C0F002018100020040F00204D
:102E1000480F0020034B1B680360034B1B68436093
:102E20007047C046000F0020140F0020F8B50400C2
:102E30000D00002817D0002917D0FFF72BF9134BEE
:102E400019686368C81A2A68561C18D02768104E7B
:102E50003668B74201D08B4216D9824207D8002388
:102E60002B6001240CE072B6FEE772B6FEE75B1A37
:102E70009B182B602000FFF7CDFF002400E000240A
:102E8000FFF714F92000F8BD0124F9E7140F002022
:102E9000000F0020014B01221A607047040F002030
:102EA000064B1B68002B07D0054B1B68002B01D07D
:102EB000002002E0022000E0012070470C0F0020FB
:102EC000F00E002070B5041E2DD0194B1B688342F4
:102ED00001D072B6FEE7836C002B01D172B6FEE71B
:102EE000013B8364C16A426C91421ED0002B01D029
:102EF000002019E0051D2800FFF767F8636CE36206
:102F00000722D21AA2610B4A1268934201D9094AD8
:102F100013609800C0188000074BC0182900FFF705
:102F200032F8012000E0002070BD0020FCE7C04620
:102F300018100020100F00208C0F00200D4885462F
:102F4000FDF700FD0C480D490D4A002302E0D4585E
:102F5000C4500433C4188C42F9D30A4A0A4C0023E3
:102F600001E013600432A242FBD3FDF76FF9FDF7D5
:102F7000F3FBFEE70090002000000020600000202E
:102F8000A0300008600000201C100020FEE70000B8
:102F9000F8B5C046F8BC08BC9E467047F8B5C046B8
:082FA000F8BC08BC9E46704716
:102FA8000500000002000000FC2F000811060008C0
:102FB800000000000000000080000000F02F000862
:102FC800510600080000000000000000800000001A
:102FD800636F756C64206E6F742073656E64207403
:102FE8006F207175000000006D795461736B303289
:102FF8000000000064656661756C745461736B0051
:1030080049444C450000000000000000000000009A
:1030180000000000000000000100000002000000A5
:103028000300000004000000000000000000000091
:103038000000000000000000000000000000000088
:103048000000000000000000010000000200000075
:103058000300000004000000060000000700000054
:10306800080000000900000001000200040006003A
:1030780008000A000C001000200040008000000139
:10308800080402040801010101010103070100000D
:0430980085050008A2
:04309C005D050008C6
:1030A000040000200000000064000020CC0000208C
:1030B00034010020000000000000000000000000BB
:1030C0000000000000000000000000000000000000
:1030D00000000000000000000000000000000000F0
:1030E00000000000000000000000000000000000E0
:1030F0000024F4000100000004000000AAAAAAAA0B
:0400000508002F3D83
:00000001FF
